:100000000C94A2150C94D3150C94D3150C94D31501
:100010000C94D3150C94D3150C94D3150C94D315C0
:100020000C94D3150C94D3150C94D3150C94D315B0
:100030000C94389F0C94D3150C94D3150C94D315B1
:100040000C94D3150C94D3150C94D3150C94D31590
:100050000C94D3150C94D3150C94D3150C944A9A84
:100060000C94D3150C94C5920C9485920C94D315D2
:100070000C94D3150C94D3150C94D3150C94D31560
:100080000C94D3150C94D3150C94D3150C94D31550
:100090000C944F920C940F920C94D3150C94529490
:1000A0000C94D3150C94D3150C94D3150C94D31530
:1000B0000C94D3150C94D3150C94D3150C94D31520
:1000C0000C94D3150C94D3150C94D3150C94D9918E
:1000D0000C9499910C94D3150C9463910C942391E6
:1000E0000C94D3150C945D930C94C7610C94C46666
:1000F0000C9442900C9418930C9420650C948D955C
:100100000C94A4A20C946C170C9447930C94BA957D
:100110000C94D5150C94949A0C94A1980C948795F2
:100120000C945A770C9467580C94911D0C94887613
:100130000C9409640C940A220C94959A0C94DE1E7B
:100140000C94077E0C94C2140C944B930C94489816
:100150000C949B400C94A5190C94F1610C94D898C4
:100160000C94CE980C94D88C0C94A2630C94CB7FF6
:100170000C94D9150C943B950C94B7400C94858243
:100180000C94CB820C94CC750C94CD630C94C7402A
:100190000C94DB400C941A820C94A8490C940941ED
:1001A0000C9409220C94D6610C94897F0C94DB6426
:1001B0000C94BE170C94B2630C9443930C9451931B
:1001C0000C94F6980C9478950C942F930C94CA6622
:1001D0000C94FB640C94B61C0C9494220C946788C9
:1001E0000C944C220C945E7D0C948B640C941B1725
:1001F0000C94F60E0C94DD2A0C94D7760C949E95F4
:100200000C9491980C94F52E0C941E930C94CF7929
:100210000C94DA690C94C3860C947B950C947D98AD
:100220000C94165E0C9499980C9459640C94F715E0
:100230000C94F3890C9443110C94E3660C94699824
:100240000C94431A0C94C6630C94C5610C948811E9
:100250000C94B5980C94C0610C940D220C94E96335
:100260000C94B51F0C94B6630C94CF950C942B2270
:100270000C943D930C94EC980C948C8D0C9410770A
:100280000C94BF980C94BC950C9458610C946E9887
:100290000C94AE630C94F0870C9499950C949F8207
:1002A0000C94D9630C94107E0C94287C0C94481107
:1002B0000C9481950C94117A0C94DE950C9432195F
:1002C0000C9487980C9422930C9442620C9459934A
:1002D0000C9403410C9426190C9448400C942593DB
:1002E0000C9439930C948C630C941D930C94D3222E
:1002F0000C94EA400C94C8660C9465950C940C65BB
:100300000C9453410C9413880C94C7180C94AB981C
:100310000C9445410C9470220C9473980C94F963DE
:100320000C9455930C94969A0C9450950C9481418E
:100330000C94E1950C94E2980C9433930C94ED108A
:100340000C947E950C94EE950C942B930C94F98F51
:100350000C94F37C0C94C6660C94AE7B0C948A18B7
:100360000C94B9850C94FA150C94191E0C94C66162
:100370000C9462950C9499190C94F5150C94EA61FF
:100380000C94581A0C9409760C94C4610C94314165
:100390004E414E494E495459494E46CDCCCC3D0A6A
:1003A000D7233C17B7D13877CC2B329595E6241F4D
:1003B000B14F0A000020410000C84200401C462006
:1003C000BCBE4CCA1B0E5AAEC59D7400407A10F3D9
:1003D0005A00A0724E18090010A5D4E80000E87673
:1003E00048170000E40B54020000CA9A3B000000CA
:1003F000E1F505000080969800000040420F0000E3
:1004000000A08601000000102700000000E80300A3
:100410000000006400000000000A0000000000016D
:1004200000000000002C76D888DC674F0823DFC16D
:10043000DFAE59E1B1B796E5E3E453C63AE6519928
:100440007696E8E6C28426EB898C9B62ED407C6F51
:10045000FCEFBC9C9F40F2BAA56FA5F490055A2A08
:10046000F75C936B6CF9676DC11BFCE0E40D47FE14
:10047000F520E6B500D0ED902E0300943577050009
:1004800080841E080000204E0A000000C80C333390
:1004900033330F986E12831141EF8D2114893BE69F
:1004A0005516CFFEE6DB18D1844B381BF77C1D9028
:1004B0001DA4BBE424203284725E228100C9F12491
:1004C000ECA1E53D2700000000060001000002123B
:1004D0000803EF050006060801F00A000D100D00E4
:1004E000F124000B140D01EF400014111501F06B05
:1004F000000E111001F0890002060501F08B0005C5
:10050000170802EF9A0005170801EFA9000707096D
:1005100001EFB0000A0B0E02F6BE0002060702FF52
:10052000C00006020801F9C20002020602FFC30071
:1005300007120700EFD3000B110D01F0EB000511BE
:100540000D03F0F6000B110D01F00E010B110D0162
:10055000F026010B110D01F03E010B110D01F056BB
:10056000010B110D01F06E010B110D01F086010B55
:10057000110D01F09E010B110D01F0B601020D06E7
:1005800002F4BA0102100602F5BE010C0C0E01F5D0
:10059000D0010C060E01F8D9010C0C0E01F5EB018F
:1005A0000A120D02EF020216151801EF3C0210129A
:1005B0001000EF60020D121002EF7E020F12110107
:1005C000EFA0020E121102EFC0020C120F02EFDBBD
:1005D000020B120E02EFF40210121201EF18030DBB
:1005E000121102EF360302120702EF3B0309120D4C
:1005F00001EF50030E121002EF70030A120E02EF09
:10060000870310121402EFAB030D121202EFC9039D
:1006100011121301EFF0030C121002EF0B0411136F
:100620001301EF34040E121102EF54040E121001E4
:10063000EF74040C120F01EF8F040D121102EFADD5
:10064000040F120F00EFCF0416121600EF01050F72
:10065000121000EF230510121000EF47050D120FC6
:1006600001EF650504170702EF710507120700EF98
:10067000810504170701EF8D0509090B01F09805A5
:100680000F010DFF049A0505040601EF9D050C0DF1
:100690000D01F4B1050C120D01EFCC050A0D0C0192
:1006A000F4DD050B120D01EFF6050B0D0D01F4083D
:1006B0000605120701EF14060B120D01F42D060AB0
:1006C000120D01EF440602120502EF490604170657
:1006D00000EF55060B120C01EF6E0602120501EF3A
:1006E0007306110D1301F48F060A0D0D01F4A00617
:1006F0000B0D0D01F4B2060C110D01F4CC060B111B
:100700000D01F4E406060D0801F4EE060A0D0C01D5
:10071000F4FF0605100701F109070A0D0D01F41A8F
:10072000070C0D0C00F42E07110D1100F44A070BF5
:100730000D0B00F45C070B120B00F475070A0D0C8F
:1007400001F4860705170801EF950702170602EF67
:100750009B0705170802EFAA070A050C01F6FFFF21
:10076000FFF0F0CF3CF38A20063031031818C7FFA2
:10077000BFFC31031818C7FFBFFC31011818C0C6F1
:1007800006300403E1FF726C4788F107207E03F016
:1007900017023C4788F11B267FC3E01002000006C9
:1007A00003C0407E0C0E7080C3180C3100E7300788
:1007B000E6003C40000C7C008FE019C70118303186
:1007C00083021C7040FE0407C00F007E039C0C30A7
:1007D00030C0E701F803803E01CC6E19B07CC0F355
:1007E00003CE1F9FE61E1CFFA0088C663198C63101
:1007F0008C63086308610C208218C318C318C631C3
:100800008C623188C4620010235BE38D91000C037D
:1008100000C030FFFFF0C0300C0300C0F560FFF0F7
:10082000F0020C1020C1020C1020C1020C1020C1DB
:10083000001F07F1C7306E0F80F01E03C0780F0154
:10084000E03C0EC19C71FC1F0008CFFF8C6318C6F2
:10085000318C63181F0FF987607C0600C0180701F0
:10086000C0F0781C0600803007FFFFE03F0FF387E1
:10087000606C0C0180707C0F801801803C0780D870
:1008800073FC1F000180700E03C0D81B06618C2111
:100890008C33067FFFFE0300600C01803FCFF980A0
:1008A000300600DE1FE70E00E00C0180300781F803
:1008B00073FC1F000F07F9C33074018033C7FEF0CB
:1008C000DC1F01E03C06C1DC71FC1F00FFFFFC01E6
:1008D0000060180200C0300601803004018030063C
:1008E000018030001F07F1C730660CC18C61FC3FEE
:1008F0008E3B01E03C0780D831FC1F001F07F1C789
:10090000706C0780F01E0761EFFC798030058198DC
:1009100073FC1E00F00003C0F0000F56000007013A
:10092000E0F83C0F00E007C00F003C00F001FFFFC3
:10093000FF000000FFFFFF000E007801F007C00F6E
:1009400000701E0F03C0F008001F1FEE1B03C0C085
:10095000300C060381C0E0300C030000000C0300E3
:1009600000FE000FFE00F03E07003C380030C1E002
:10097000660FD9D861C3C3070F1C1C3C6060F181AE
:1009800083C6061B1838EE71E718FDF871E7C0E062
:100990000001E00001FFC001FC0003C003C003C070
:1009A00007E0066006600E700C300C301C3818181A
:1009B0001FF83FFC301C300C700E60066006FFC74D
:1009C000FF3019806C03601B00D80CFFC7FF300D8F
:1009D000803C01E00F007806FFF7FE0007E03FF0E3
:1009E000E0738066006C0030006000C0018003008E
:1009F000060006006C00DC031E0E1FF80FC0FF830C
:100A0000FF8C07300EC01B007C00F003C00F003CC1
:100A100000F003C01F006C03B01CFFE3FF00FFFFEA
:100A2000FFC00C00C00C00C00C00FFEFFEC00C00AB
:100A3000C00C00C00C00FFFFFFFFFFFF00600C01B7
:100A400080300600FFDFFB00600C0180300600C034
:100A5000180007F01FFC3C1E70066003E000C00099
:100A6000C000C07FC07FC003C00360036007300FB9
:100A70003C1F1FFB07E1C01E00F007803C01E00F98
:100A8000007803FFFFFFF007803C01E00F007803D0
:100A9000C01E00C0FFFFFFFFF00180C06030180CD7
:100AA00006030180C0603C1E0F07C77F1F00C03BCC
:100AB00001CC0E3070C3831C0CE03380DE03DC0EEF
:100AC000383060C1C3038C06301CC03B0060C030AE
:100AD0000C0300C0300C0300C0300C0300C0300C0D
:100AE0000300FFFFF0E007E007F00FF00FD00FD892
:100AF0001BD81BD81BCC33CC33CC33C663C663C6E0
:100B000063C3C3C3C3C3C3C183E01F00FC07E03D8D
:100B100081EE0F3079C3C61E18F0E7833C1DE06FED
:100B200001F80FC03E01C003E00FFC0F078600C6AE
:100B30000033001B00078003C001E000F0007800D4
:100B40003600330018C018783C1FFC03F800FF8FF4
:100B5000FEC06C03C03C03C03C07FFEFFCC00C00B0
:100B6000C00C00C00C00C00C0003E00FFC0F078697
:100B700000C60033001B00078003C001E000F00046
:100B800078003600330198C0FC783C1FFF03F980E1
:100B90000040FFC3FFCC03B006C01B006C01B00CCB
:100BA000FFE3FFCC03B006C01B006C01B006C01B06
:100BB00000700FE07FC3839C07600D8006001E005D
:100BC0003F803FC00F8007C00F003E00DE0E3FF0A9
:100BD0003F80FFFFFF060060060060060060060021
:100BE00060060060060060060060060060C01E002F
:100BF000F007803C01E00F007803C01E00F0078082
:100C00003C01E00F80EE0E3FE07C006006C01DC09E
:100C100031806301C70306060C1C1C30186031C00C
:100C200073006600DC01F001E003C00700E0301D46
:100C300080E0760781D81E06707C18C1B0E30CC333
:100C40008C330C38C6306718C198670661D81D838D
:100C5000603C0D80F03E03C0700F01C018070070AB
:100C60000E6038E060E1C0C301CC01F801E0038010
:100C700007801F003300E70386060E1C0E700CC0B1
:100C80001C6006700E301C38181C380C300E7006B4
:100C90006003C003C00180018001800180018001E8
:100CA0008001800180FFFFFFC00E00E00E006007A2
:100CB000007007003003803803801801C01C00FF5B
:100CC000FFFFC0FFCCCCCCCCCCCCCCCCCCCFF081FB
:100CD000810206040818102060408181020604FF8A
:100CE0003333333333333333333FF00C0E0586C3A2
:100CF00021198C83C180FFFEE38C303F07F8E1CCE3
:100D00000C00C01C3FCF8CC0CC0CE3C7EF3C70C0C4
:100D10000C00C00C00C00CF8DFCF0EE07C03C03C20
:100D200003C03C03E06F0EDFCCF81F0FE71B83C04E
:100D3000300C0300C038371CFE1F0000600C01801F
:100D400030063CCFFB8FE0F80F01E03C0780F83B1A
:100D50008F3F63CC1F07F1C7703C07FFFFFE00C049
:100D60001C0DC31FE1F03BD8C67FEC6318C6318C65
:100D700063001E67FDC7F07C0780F01E03C07C1D6A
:100D8000C79FB1E600C03E0E7FC7E0C0300C030035
:100D9000C033CDFBC7E0F03C0F03C0F03C0F03C0F5
:100DA000F030F03FFFFFF03300033333333333339E
:100DB000333FE0C0180300600C018330C630CC1B09
:100DC00083F0770C618E30E60CC1D818FFFFFFFF6F
:100DD000F0CF1F6FDFFC78FC183C0C1E060F0307DA
:100DE0008183C0C1E060F03078183C0C18CF37EF39
:100DF0001F83C0F03C0F03C0F03C0F03C0C01F07AF
:100E0000F1C7707C0780F01E03C07C1DC71FC1F0B6
:100E1000CF8DFCF0EE06C03C03C03C03C03E07F0A3
:100E2000EFFCCF8C00C00C00C0001E67FDC7F07C3B
:100E30000780F01E03C07C1DC79FF1E600C01803A9
:100E40000060CF7F38C30C30C30C30C03E1FEE1B98
:100E500000C03C07F03E01F03E1DFE3E006319FF5E
:100E6000B18C6318C631E7C0F03C0F03C0F03C0FF3
:100E700003C0F07E3DFB3CC0E0660660670C30C3FB
:100E80000C3981981981F00F00E00E00C1C1B0E16A
:100E9000D870CC2C6636319B18CD98646C16360F02
:100EA0001A078F038380C1C060EE18C60CC1F01C06
:100EB0000180781B0330C7306606E06C0D83386311
:100EC0000C630E60CC1B03603C0700E0180300E0DD
:100ED000780E00FFFFF0180C070381C06030180E79
:100EE00003FFFFC019CC6318C631998618C6318C30
:100EF000631C60FFFFFFFFFFFCC718C6318C630C4B
:100F000033318C6318C67300703E09E41F03800000
:100F1000000000003E5B4F5B3E3E6B4F6B3E1C3E55
:100F20007C3E1C183C7E3C181C577D571C1C5E7F69
:100F30005E1C00183C1800FFE7C3E7FF00182418E8
:100F400000FFE7DBE7FF30483A060E26297929261D
:100F5000407F050507407F05253F5A3CE73C5A7F07
:100F60003E1C1C08081C1C3E7F14227F22145F5F5D
:100F7000005F5F06097F017F006689956A60606097
:100F8000606094A2FFA29408047E040810207E20D2
:100F90001008082A1C08081C2A08081E1010101027
:100FA0000C1E0C1E0C30383E3830060E3E0E06006D
:100FB0000000000000005F00000007000700147F31
:100FC000147F14242A7F2A12231308646236495698
:100FD00020500008070300001C2241000041221C91
:100FE000002A1C7F1C2A08083E0808008070300078
:100FF0000808080808000060600020100804023E8D
:101000005149453E00427F400072494949462141CD
:10101000494D331814127F1027454545393C4A493C
:10102000493141211109073649494936464949297B
:101030001E0000140000004034000000081422418B
:101040001414141414004122140802015909063E14
:10105000415D594E7C1211127C7F494949363E410F
:101060004141227F4141413E7F494949417F090930
:1010700009013E414151737F0808087F00417F41CB
:10108000002040413F017F081422417F4040404002
:101090007F021C027F7F0408107F3E4141413E7F5A
:1010A000090909063E4151215E7F09192946264951
:1010B00049493203017F01033F4040403F1F204028
:1010C000201F3F4038403F63140814630304780432
:1010D000036159494D43007F4141410204081020FA
:1010E000004141417F040201020440404040400071
:1010F0000307080020545478407F2844443838447B
:10110000444428384444287F385454541800087EF6
:10111000090218A4A49C787F0804047800447D4048
:10112000002040403D007F1028440000417F4000E7
:101130007C047804787C080404783844444438FCFF
:101140001824241818242418FC7C08040408485483
:1011500054542404043F44243C4040207C1C204040
:10116000201C3C4030403C44281028444C90909037
:101170007C4464544C440008364100000077000071
:10118000004136080002010204023C2623263C1ED0
:10119000A1A161123A4040207A3854545559215542
:1011A0005579412254547842215554784020545561
:1011B00079400C1E527212395555555939545454B0
:1011C0005939555454580000457C410002457D4230
:1011D0000001457C407D1211127DF0282528F07C0D
:1011E000545545002054547C547C0A097F493249A7
:1011F0004949323A4444443A324A4848303A4141F3
:10120000217A3A42402078009DA0A07D3D42424292
:101210003D3D4040403D3C24FF2424487E494366F8
:101220002B2FFC2F2BFF0929F620C0887E090320D5
:10123000545479410000447D413048484A32384096
:1012400040227A007A0A0A727D0D19317D262929F9
:101250002F28262929292630484D402038080808FB
:101260000808080808382F10C8ACBA2F102834FA1C
:1012700000007B000008142A142222142A140855A6
:1012800000550055AA55AA55AAFF55FF55FF000065
:1012900000FF00101010FF00141414FF001010FFC6
:1012A00000FF1010F010F0141414FC001414F700D8
:1012B000FF0000FF00FF1414F404FC141417101FA7
:1012C00010101F101F1414141F00101010F0000035
:1012D00000001F101010101F10101010F010000050
:1012E00000FF101010101010101010FF1000000060
:1012F000FF140000FF00FF00001F10170000FC0497
:10130000F414141710171414F404F40000FF00F779
:1013100014141414141414F700F7141414171410DC
:10132000101F101F141414F4141010F010F000000B
:101330001F101F0000001F14000000FC140000F02C
:1013400010F01010FF10FF141414FF141010101FD1
:1013500000000000F010FFFFFFFFFFF0F0F0F0F0E2
:10136000FFFFFF0000000000FFFF0F0F0F0F0F38FF
:1013700044443844FC4A4A4A347E02020606027E4D
:10138000027E0263554941633844443C04407E2058
:101390001E2006027E020299A5E7A5991C2A492A69
:1013A0001C4C7201724C304A4D4D303048784830F8
:1013B000BC625A463D3E494949007E0101017E2AF0
:1013C0002A2A2A2A44445F444440514A4440404423
:1013D0004A51400000FF0103E080FF000008086B55
:1013E0006B083612362436060F090F06000018184F
:1013F0000000001010003040FF0101001F01011E1D
:1014000000191D1712003C3C3C3C0000000000008D
:101410000020002300260029002C002F00320000AD
:10142000010000030106010901202D2D00577269FA
:10143000746520454550524F4D005345545550005A
:10144000526573657474696E6720656E657267793D
:1014500000556E68616E646C6564206E6574776FAC
:10146000726B206576656E7420747970653A200021
:101470004E6F2076616C6964207369676E61747564
:10148000726520666F756E6420696E206565707286
:101490006F6D2E00DB40A4A62EAF2000A1C8D300A4
:1014A000408DAED580A80000600000000000000064
:1014B00000000000000000E000000000000000004C
:1014C000000000000001E00000000000000000003B
:1014D0000000000001F0000000000000000000001B
:1014E00000000003F0000000000000000000000009
:1014F000000007F0000000000000000000000000F5
:101500000007F800000000000000000000000000DC
:101510000FF800000003C0007E000001E0007F0F14
:10152000F800000003C000FE000001E000FFEFF83B
:1015300000000003C000FE000001E000FFFFF80013
:10154000000003C000F00000000F007FFE7FC0001D
:101550000003C000F00000000F003FFE7FF83FF1E5
:10156000FBCFFCFEF3BC3DEFE01FFE7FFF7FFBFFE8
:10157000DFFEFEFFBC3DEFE01FC6FFFF7FFBFFDF8E
:10158000FEFEFFBC3DEFE00FE3C7FE787BC3DE1E2F
:10159000F0FFBC3DEF0007FF87FC787BC3DE1EF049
:1015A000F83C3DEF0001FFFFF0007BC3C01EF0F0F0
:1015B0003C3DEF0001F37FE03FFBC3CFFEF0F03C8A
:1015C0003DEF0003E33F807FFBC3DFFEF0F03C3DD7
:1015D000EF0007E73C00787BC3DE1EF0F03C3DEFF8
:1015E0000007FFBE00787BC3DE1EF0F03C3DEF003D
:1015F00007FFFE00787BC3DE1EF0F03C3DEF000FDE
:10160000FFFE007FFBFFDFFEF0F03FFDEFE00FFF8E
:10161000FF007FFBFFDFFEF0F03FFDEFE00FF9FF83
:10162000003E79F9CF9EF0F01F3DE7E01FF1FF008B
:1016300000000000000000000000001F80FF007F8D
:10164000FFFFFFFFFFFFFFFFFFE01C007F007FFFAA
:10165000FFFFFEB46D888D18E000001F007FFFFFC4
:10166000FFFE95AD7DB577E000000F007FFFFFFF27
:10167000FEA5AD9D8D19E0000006007FFFFFFFFE77
:10168000B5ADEDB57EE00000000000018000000077
:1016900000000000000003800000000000000000C7
:1016A0000007C000000000000000000007C00000AC
:1016B000000000000000000FC0000000000000005B
:1016C00000001FE00000000000000000001FE0001C
:1016D00000000000000000003FE0000000000000EB
:1016E0000000003FF00000000000000000007FF05C
:1016F000000000000000001FF87FF0000000000064
:1017000000003FFE7FF0000000000000003FFF7F70
:10171000F0000000000000001FFFFBE000000000E0
:101720000000000FFFF9FFC00000000000000FFFE5
:10173000F9FFF800000000000007FFF1FFFF0000C4
:101740000000000003FC73FFFF80000000000001A8
:10175000FE3FFFFF80000000000000FF1E0FFF00A3
:101760000000000000007FFE1FFC000000000000E1
:10177000003FFFFFF8000000000000000FDFFFE067
:10178000000000000000001F19FFC0000000000062
:1017900000003F3CFF00000000000000007E7CF8DD
:1017A00000000000000000007FFE7C000000000040
:1017B000000000FFFFFC0000000000000000FFFF31
:1017C000FE0000000000000000FFFFFE000000001F
:1017D00000000001FFEFFE0000000000000001FF1C
:1017E000CFFE0000000000000003FF07FE00000025
:1017F0000000000003FC07FE0000000000000003E2
:10180000F003FE00000000000000018000FE000068
:1018100000000000000000007E000000000000004A
:101820000000003E000000000000000000000C006E
:101830000000000000078000FC000003C000000062
:10184000078001FC000003C0000000078001FC00CD
:101850000003C0000000078001E00000001E00003F
:1018600000078001E00000001E007FE3F79FF9FD04
:10187000E7787BDFC0FFF7FFBFFDFDFF787BDFC0B0
:10188000FFF7FFBFFDFDFF787BDFC0F0F787BC3DB2
:10189000E1FF787BDE00F0F787BC3DE1F0787BDE8E
:1018A0000000F787803DE1E0787BDE007FF7879FCF
:1018B000FDE1E0787BDE00FFF787BFFDE1E0787BAC
:1018C000DE00F0F787BC3DE1E0787BDE00F0F787D3
:1018D000BC3DE1E0787BDE00F0F787BC3DE1E078DD
:1018E0007BDE00FFF7FFBFFDE1E07FFBDFC0FFF71E
:1018F000FFBFFDE1E07FFBDFC07CF3F39F3DE1E054
:101900003E7BCFC00000000000000000000000FF90
:10191000FFFFFFFFFFFFFFFFFFC0FFFFFFFFFD68AF
:10192000DB111A31C0FFFFFFFFFD2B5AFB6AEFC02E
:10193000FFFFFFFFFD4B5B3B1A33C0FFFFFFFFFDC7
:101940006B5BDB6AFDC05353443133303620616C2E
:101950006C6F636174696F6E206661696C656400A9
:10196000496E697469616C697A696E67005E07C562
:101970000420007E001D496E697469616C697A6992
:101980006E6720446973706C61790053746172747E
:10199000002200FF2100000103070F1F3F7F00808E
:1019A000C0E0F0F8FCFE20204448435020617373EF
:1019B00069676E6564204950200045746865726EE1
:1019C0006574206361626C65206973206E6F74209A
:1019D000636F6E6E65637465642E0045746865722E
:1019E0006E6574206D6F64756C65206E6F74206613
:1019F0006F756E64004661696C656420746F206366
:101A00006F6E6669677572652045746865726E658C
:101A100074207573696E67204448435000444843FE
:101A20005020636F6E6E656374207472792023009A
:101A3000496E697469616C697A652045746865727C
:101A40006E6574207769746820444843503A0020DA
:101A500074727920616761696E20696E2035207328
:101A600065636F6E6473006661696C65642C2072D7
:101A7000633D00636F6E6E656374656400417474EA
:101A8000656D7074696E67204D51545420636F6E9C
:101A90006E656374696F6E2E2E2E00436F6E6E65D9
:101AA0006374696E6720746F207365727665723A2D
:101AB000200020487A00206B77002057002041004A
:101AC00020560000000A0B02090C0D0E0807030443
:101AD0000100000000000000000000000000000005
:101AE00000000000000000000000000000000012E4
:101AF00011100000000000000000000000000000C5
:101B00000000000000000000004D515454206E6F92
:101B10007420636F6E6E65637465642C2061626F00
:101B20007274207075626C6973682E000000220068
:101B3000250028002B002E00310034000201000097
:101B4000050108010B0100002100240027002A00E4
:101B50002D003000330001010000040107010A01DB
:101B600005050505070508080808020202020A0A19
:101B70000808040404040101010101010101030337
:101B8000030303030303040707070C0C0C0C0C0CE2
:101B90000C0C0202020206060606060606060B0BDF
:101BA0000B0B0B0B0B0B0102102020080810204020
:101BB0001020408002010201080402010102040811
:101BC000102040808040201008040201800402019F
:101BD00080402010080402010804020101020408E8
:101BE0001020408001020408102040800000C1C085
:101BF00081C1400101C3C003800241C201C6C006C9
:101C0000800741C70005C1C581C4400401CCC00C98
:101C1000800D41CD000FC1CF81CE400E000AC1CA58
:101C200081CB400B01C9C009800841C801D8C01848
:101C3000801941D9001BC1DB81DA401A001EC1DEC8
:101C400081DF401F01DDC01D801C41DC0014C1D4B8
:101C500081D5401501D7C017801641D601D2C012D8
:101C6000801341D30011C1D181D0401001F0C030A8
:101C7000803141F10033C1F381F240320036C1F6C8
:101C800081F7403701F5C035803441F4003CC1FC98
:101C900081FD403D01FFC03F803E41FE01FAC03A58
:101CA000803B41FB0039C1F981F840380028C1E888
:101CB00081E9402901EBC02B802A41EA01EEC02EC8
:101CC000802F41EF002DC1ED81EC402C01E4C024B8
:101CD000802541E50027C1E781E640260022C1E2D8
:101CE00081E3402301E1C021802041E001A0C060E8
:101CF000806141A10063C1A381A240620066C1A6C8
:101D000081A7406701A5C065806441A4006CC1AC97
:101D100081AD406D01AFC06F806E41AE01AAC06A57
:101D2000806B41AB0069C1A981A840680078C1B847
:101D300081B9407901BBC07B807A41BA01BEC07EC7
:101D4000807F41BF007DC1BD81BC407C01B4C074B7
:101D5000807541B50077C1B781B640760072C1B2D7
:101D600081B3407301B1C071807041B00050C19027
:101D7000819140510193C053805241920196C056C7
:101D8000805741970055C19581944054019CC05C97
:101D9000805D419D005FC19F819E405E005AC19A57
:101DA000819B405B0199C059805841980188C04887
:101DB00080494189004BC18B818A404A004EC18EC7
:101DC000818F404F018DC04D804C418C0044C184B7
:101DD000818540450187C047804641860182C042D7
:101DE000804341830041C18181804040CF93DF9394
:101DF00000D000D000D01F92CDB7DEB78FE0482EC4
:101E00008CE0582E7724739466246A94E091950BA5
:101E1000F091960B9081D12CC12C992329F005804B
:101E2000F681E02DC080D1808091200C8F5F80935F
:101E3000200C0FB6F8940F92E090210CF090220C39
:101E40000F900FBE20919D0A30919E0AE216F30674
:101E500008F4B9C0F0929E0AE0929D0A9111DCC08C
:101E6000E091930BF091940B8081BB24B39481118A
:101E7000D7C00091970B1091980B0FB6F8940F9262
:101E8000F801858D8F3F09F4158ED8015E968C91EF
:101E90005E978F3F11F45E961C920F900FBEF80173
:101EA000828D882309F414C30FB6F8940F92D801D9
:101EB0005E96FC901F14DCF4F80181898823B9F048
:101EC0006801F1E1CF0ED11C08C0FA94FF2079F02F
:101ED000D80151968C91882351F0C6010E94149E1E
:101EE000882399F370929F0AFA94F110F1CFF801C8
:101EF000668E0F900FBE0FB6F8940F92F58C1F14DC
:101F0000CCF480858823B1F06801B8E0CB0ED11CF9
:101F100007C0FA94FF2071F0F8018085882351F002
:101F2000C6010E94149E8823A1F370929F0AFA941E
:101F3000F110F2CFF801658E0F900FBE0E9411A034
:101F400081115AC00E943B9F57C00580F681E02D49
:101F5000A080B18006811781680122E0C20ED11CE9
:101F6000D8011A96ED91FC911B9714962D913C91F6
:101F7000159716968D919C91D90115969C938E93E9
:101F80001497D80116968D919C91DC0113963C9381
:101F90002E93129721813281C216D30611F49283B7
:101FA0008183D8011B961C921E921A9780818150C2
:101FB000808380815096ED91FC91C8011995F801BC
:101FC000828982FDFFC1E091950BF091960B808193
:101FD0008111BBCF8091930B9091940B9093960BB2
:101FE0008093950BF093940BE093930BF0929E0AE1
:101FF000E0929D0A0E9411A00091970B1091980BFE
:102000000FB6F8940F92D8015A96FC905A97F11097
:1020100009C00F900FBEFACEEC14FD0408F08BC17E
:10202000B12C27CF5C964C915C974423E9F050E0AB
:1020300016966D917C911797640F751F17967C9378
:102040006E93169714968D919C9115976817790742
:1020500038F06D917C91119717967C936E9316973B
:10206000CE0106960E9483B3FA94F801F28E808521
:10207000811157C10F900FBE8E8187FDBDCFE984BE
:10208000FA84D7011A96ED91FC911B97309739F19C
:1020900014964D915C91159716968D919C91DA014D
:1020A00015969C938E931497D70116962D913C917B
:1020B000D90113965C934E93129741815281C701C7
:1020C00002964817590711F432832183D7011B96D2
:1020D0001C921E921A9780818150808380810FB656
:1020E000F8940F92A090210CB090220C0F900FBE8C
:1020F00080919D0A90919E0AA816B90608F459C0CD
:10210000B0929E0AA0929D0AEE81EA3008F074CF48
:102110000E2E000CFF0B8827EF56FF4E8F4F0C94AE
:1021200047B24811481148114311ED108811481168
:1021300048114311ED100580F681E02D80809180DB
:10214000068117816801B2E0CB0ED11CD8011A9626
:10215000ED91FC911B9714962D913C911597169635
:102160008D919C91D90115969C938E931497D801CB
:1021700016968D919C91DC0113963C932E931297A9
:1021800021813281C216D30611F492838183D80152
:102190001B961C921E921A978081815080838081A9
:1021A0005096ED91FC91C8011995F801828982FD44
:1021B0004CC1E091950BF091960B80818111BBCFC2
:1021C0008091930B9091940B9093960B8093950B29
:1021D000F093940BE093930B93CFD70152968C918D
:1021E0005297816052968C9352972F8138851D9615
:1021F0003C932E931C97C9018A0D9B1D13969C93AB
:102200008E9312971996FC92EE9218970091970B65
:102210001091980BA816B90608F44AC2232B09F4AA
:10222000EFCE97012E5F3F4FC090930BD090940B51
:10223000F60133968F3F980711F481C3FA0142816A
:102240005381DA016D917C9186179707B8F78281E7
:102250009381D70115969C938E931497DC01159664
:102260003C932E931497D7011796FC93EE931697F1
:10227000338322831B96DC92CE921A97F6018081DB
:102280008F5F8083BDCEF70182898E7F828BB4CE33
:10229000F70182898160828B0F81188524853585BD
:1022A000C801820F931F93838283F186E086A8166C
:1022B000B90608F415C2A01AB10AA216B30608F4AA
:1022C000CBC2D7015096ED91FC91C7011995F7014A
:1022D000828982FF91CE84859585800F911F009120
:1022E000970B1091980B0115110509F489CE1982ED
:1022F0009B838A83FD82EC8280910D0CBE016F5F0F
:102300007F4F81118091200CC8010E948CA774CE50
:10231000D70152968C9181FF92C28E7FF701828BFA
:102320006BCEC80108960E94149E882309F4A2CEA1
:102330000E943B9F9FCE0E9411A0A090950BB09051
:10234000960BF501A581B68116960D911C91B801E9
:102350006E5F7F4FD8011A96ED91FC911B971496F2
:102360002D913C91159716968D919C91D9011596BA
:102370009C938E931497D80116968D919C91DC01B5
:1023800013963C932E931297218132816217730723
:1023900009F4B6C2D8011B961C921E921A9780812E
:1023A00081508083808152968C91529782FD6CC2BD
:1023B0008E7FF801828BD8015096ED91FC91C80177
:1023C00019951ACE848595858A0D9B1DA816B90688
:1023D00008F040C19383828311870087E091950BB9
:1023E000F091960BBF016D5F7F4F8F3F980711F4FF
:1023F00020C2B901DB0112962D913C91D9014D917A
:102400005C9184179507A8F7DB0112968D919C913A
:10241000D80115969C938E931497DC011596DC9247
:10242000CE921497D80117967C936E931697DB0182
:102430001396DC92CE921297D8011B96FC93EE93E2
:102440001A9780818F5F8083C2CD84859585880DA2
:10245000991D8816990608F014C193838283118709
:102460000087E091950BF091960BBF016D5F7F4F58
:102470008F3F980711F4E0C1B901DB0112962D914D
:102480003C91D9014D915C9184179507A8F7DB0128
:1024900012968D919C91D80115969C938E931497CA
:1024A000DC011596DC92CE921497D80117967C9396
:1024B0006E931697DB011396DC92CE921297D80199
:1024C0001B96FC93EE931A9780818F5F808375CE65
:1024D0000288F389E02DA0911E0CB0911F0C1F966D
:1024E000FC93EE931E97A0911E0CB0911F0C84815B
:1024F000958151969C938E93509780911E0C90914C
:102500001F0CA481B5810C9613969C938E93129701
:1025100080911E0C90911F0C0C9695838483E09102
:102520001E0CF0911F0CC8014196958B848BD8012D
:1025300051968C9151978F5F51968C938FEF9FEFAF
:10254000B11003C0C6018E199F092091210C309152
:10255000220CE0911E0CF0911F0CC284D384648184
:10256000758146815781DB0115965C934E931497D4
:1025700046815781DA0113967C936E931297BF01BF
:102580006E5F7F4FD6011196ED90FC901297E61684
:10259000F70621F412965C934E93119713861286D8
:1025A000F60140814150408340818F3F980709F4F4
:1025B000D1C0820F931FE0911E0CF0911F0C9383EA
:1025C00082838217930708F4FCC020911E0C30917F
:1025D0001F0CB9016E5F7F4FA0901A0CB0901B0CBE
:1025E000D9011296ED90FC90F5013396BFEFEB16F2
:1025F000FB0611F4B5C1FA0142815381DA01CD9095
:10260000DC90EC14FD04B8F7D90115965C934E9359
:102610001497DA0115967C936E931497D901179647
:10262000FC93EE931697738362831B96BC92AE92D3
:102630001A97F50120812F5F20832091180C30918B
:10264000190C8217930708F02FCC9093190C8093E4
:10265000180C2ACC8091970B9091980B009709F455
:10266000B2CC1982BB82AA821D830C8320910D0CEF
:10267000BE016F5F7F4F21112091200C0E948CA71B
:10268000A2CC8091970B9091980B009709F491CD73
:1026900019829B828A821D830C8320910D0CBE01BE
:1026A0006F5F7F4F21112091200C0E948CA781CD5C
:1026B00097012E5F3F4FC090950BD090960B8F3FA8
:1026C000980709F43CC1F601339601C0FA01428132
:1026D0005381DA016D917C9186179707B8F7B7CDD2
:1026E000A016B10620F48017910708F0EACD9701F3
:1026F0002E5F3F4F0091950B1091960B8F3F9807DF
:1027000009F422C1F801339601C0FA0142815381D4
:10271000DA016D917C9186179707B8F782819381D2
:10272000D70115969C938E931497DC0115963C93D4
:102730002E931497D7011796FC93EE931697338335
:1027400022831B961C930E931A97F80180818F5F4A
:10275000808352CCBB2009F42CCFE091100CF09177
:10276000110CA0911E0CB0911F0C1596FC93EE93CA
:102770001497A0911E0CB0911F0C8481958117961F
:102780009C938E93169780911E0C90911F0CA481A0
:10279000B581029613969C938E93129780911E0C8E
:1027A00090911F0C029695838483E0911E0CF0910A
:1027B0001F0C5386428680910F0C8F5F80930F0C05
:1027C00073CB80911E0C90911F0CAC014E5F5F4F3C
:1027D000C0901C0CD0901D0CDC0112966D917C9168
:1027E000F60133966F3F760711F4B3C0F9012281E9
:1027F0003381D901ED90FC906E157F05B8F7DC01AF
:1028000015963C932E931497D90115965C934E938D
:102810001497DC011796FC93EE931697538342832B
:102820001B96DC92CE921A97F60180818F5F80838F
:102830003BCB67817085E8CD6781708528CEE11438
:10284000F10409F4D9CB8091200C8F5F8093200C88
:10285000C7010E9415ABCECB97012E5F3F4F009171
:10286000930B1091940B8F3F980709F46DC0F801FA
:10287000339601C0FA0142815381DA016D917C9156
:1028800086179707B8F74ACF1C962D913C911D9754
:10289000C601820F931F13969C938E9312971996DD
:1028A0001C930E931897E816F90668F58F3F980762
:1028B00009F464C0D501139601C0D90112962D9177
:1028C0003C911397F9014081518184179507A8F72E
:1028D00012968D919C911397F80195838483FC0146
:1028E00075836483F801B783A68313967C936E93F4
:1028F0001297B386A286D5018C918F5F8C935BCDA6
:102900009283818347CDEC18FD08E216F30678F137
:102910008091970B9091980B009709F44CCD1982F8
:10292000DB82CA821D830C8320910D0CBE016F5F78
:102930007F4F21112091200C0E948CA73CCDD60105
:102940001796ED91FC9183CCD8011796ED91FC91EF
:10295000E5CED6011796ED91FC91228133814FCFC0
:10296000D5011796ED91FC91428153814DCE809116
:10297000930B9091940B0E94E49D1DCDF501A781CE
:10298000B085A6CF89EDA82E83E6B82E90E0692EFB
:1029900090E0792E29EEC22E23E6D22E30E0432E8F
:1029A00030E0532E49EFE42E43E6F42E50E0252E7E
:1029B00050E0352E09E514E660E0862E60E0962EA4
:1029C00080919A0A882309F455C00FB6F8940F92A3
:1029D000E091000CF091010CC681D781EA85FB855E
:1029E0002C813D818E819F81D90115969C938E9378
:1029F00014978E819F81DC0113963C932E9312973E
:102A00009E012E5F3F4F418152814217530711F4BF
:102A1000928381831B861A86808181508083808186
:102A200080910E0C815080930E0C80919A0A8150F7
:102A300080939A0A0F900FBE8F89988D009749F066
:102A40002091200C2F5F2093200C0E9415AB0E9438
:102A500011A0209709F4B4CF8091200C8F5F809350
:102A6000200CCE010E9415AB0E9411A080919A0A01
:102A70008111ABCF8091240C823010F00E943B9FDB
:102A800089E094E6892B09F49BCFA114B10489F065
:102A90006114710471F080914B0E20914C0E90E006
:102AA000805C9F4F821B91098F739927892B09F0B6
:102AB00042C0C114D10481F04114510469F08091E5
:102AC000AE0D2091AF0D90E0805C9F4F821B91096D
:102AD0008F739927892B91F5E114F10481F021146A
:102AE000310469F08091110D2091120D90E0805C0D
:102AF0009F4F821B91098F739927892BC9F4011568
:102B0000110509F45DCF8114910409F459CF809126
:102B1000740C2091750C90E0805C9F4F821B910992
:102B20008F739927892B09F44BCF0E94000048CF5F
:102B30000E940000E4CF0E940000BBCF0E94000072
:102B4000CBCFA4A211241FBECFEFD1E2DEBFCDBFF9
:102B500000E00CBF1AE0A0E0B2E0E4E0FDE601E036
:102B60000BBF02C007900D92A839B107D9F72FE02B
:102B7000A8E9BAE001C01D92AA3FB207E1F715E14A
:102B8000C2EAD5E100E006C021970109802FFE01CD
:102B90000E9447B2C13AD10780E00807A9F70E9416
:102BA000B9A30C9480B60C940000FC01768765876D
:102BB0000895DC01ED91FC91068CF78DE02DB3E6D4
:102BC000E23AFB0771F4FC019485DB011C968C91C1
:102BD000981711F081E0089581E09830E0F780E0E7
:102BE0000895199591E089270895862F089581E029
:102BF0008627089521E0FC018485883008F020E0D4
:102C0000822F08950F931F93CF93DF93EC018C8154
:102C10009D81681779070CF03FC0DA01A20FB31F3E
:102C200057FD3FC0EE81FF81EA17FB071CF49F01AF
:102C3000241B350B121613067CF5522FE42FE69554
:102C4000E695E695E89FD001E99FB00D11246A0F43
:102C50007B1FAF8DB8A1A60FB71F4770D9F168E0F1
:102C6000641B462F70E0FB01E256F64EE4912617F6
:102C700010F5621B71098FEF90E002C09595879562
:102C80006A95E2F7E8230130110509F452C0B8F063
:102C90000230110509F44AC0DF91CF911F910F91C5
:102CA00008959D0150E040E0EE81FF81EA17FB07A7
:102CB0000CF0C0CFBCCF01301105D9F1A0F5E095E3
:102CC0008C91E823EC93541738F38C819D81A80FE5
:102CD000B91F541B583090F00230110569F191E092
:102CE00001151105F1F09195852F9C932C813D8163
:102CF000A20FB31F88508830C0F75770552361F278
:102D0000E52FF0E0EA56F64EE4910130110501F1AD
:102D100018F10230110509F0BFCF8C91E827EC9330
:102D2000BBCF90E0E0CF0230110589F68C91E82707
:102D3000C9CF8C91E82BC6CF952F8C9180958C9321
:102D40002C813D81A20FB31F98509830B0F7D5CF9A
:102D50008C91E82BEC93A0CFE0958C91E823EC9339
:102D60009BCF0F931F93CF93DF93FB01E20FF31FD2
:102D700077FF03C09F0170E060E0EC01AC81BD8192
:102D8000AE17BF071CF49D01261B370B1216130646
:102D900084F5EA0157FD32C0D595C795D595C795FD
:102DA000D595C795CA9FF001CB9FF00DDA9FF00D26
:102DB00011246E0F7F1FDC015F96ED91FC91E60FF1
:102DC000F71F4770552781E090E001C0880F4A95B2
:102DD000EAF7482F0130110509F190F00230110592
:102DE00041F42E0F3F1F808184278193E217F30760
:102DF000D1F7DF91CF911F910F9108952796CCCFF6
:102E000080952E0F3F1F9081982391932E173F0797
:102E1000D1F7DF91CF911F910F9108952E0F3F1F92
:102E20008081842B81932E173F07D1F7DF91CF91BB
:102E30001F910F9108950F931F93FA01A901DC01CF
:102E400056963C915697323089F1333029F1313022
:102E500049F077FD04C09A01AF010E9402161F914C
:102E60000F91089514962D913C91D901AE1BBF0B83
:102E7000FD01E41BF50B77FDF2CFDC0116962D91D9
:102E80003C91621773075CF79A01AB01BF010E9486
:102E9000B1161F910F91089516962D913C91D9016D
:102EA000A61BB70BBD0161507109E5CF14962D919A
:102EB0003C91D901A61BB70BBD0161507109DC0122
:102EC00016962D913C91D901AE1BBF0BFD01E41B61
:102ED000F50B77FDC4CFBFCF0F931F93FA01A90164
:102EE000DC0156963C915697323061F1333001F156
:102EF000313061F0F7FD07C0DC0116962D913C9151
:102F0000E217F307A4F11F910F91089514962D91E4
:102F10003C91D901AE1BBF0BFD013197F7FDF3CFFB
:102F20009A01AB01BF010E9402161F910F910895F3
:102F300016962D913C91D901A61BB70BBD01641BC0
:102F4000750BECCF14962D913C91D901A61BB70BB4
:102F5000BD01DC0116962D913C91D901AE1BBF0B32
:102F6000FD013197641B750BF7FDCDCFC5CF9A01DD
:102F7000AF010E94B1161F910F91089577FD4DC0CA
:102F8000DC011896ED91FC9119976E177F070CF0F4
:102F900044C057FD42C01A96ED91FC911B974E1705
:102FA0005F07DCF55696EC915697E23009F49EC027
:102FB000E33009F491C0E13091F12130310509F499
:102FC00062C0B8F12230310549F59A0157FF02C0BD
:102FD000295F3F4F35952795359527953595279549
:102FE000FC01A481B5812A9FF0012B9FF00D3A9F2F
:102FF000F00D11246E0F7F1FDC015F96ED91FC91A7
:10300000E60FF71F4770552721E030E001C0220F7F
:103010004A95EAF78081822780830895089514965F
:10302000ED91FC91E41BF50BAB01BF0161507109FF
:10303000C4CF9A0157FF02C0295F3F4F35952795AE
:103040003595279535952795FC01A481B5812A9F53
:10305000F0012B9FF00D3A9FF00D11246E0F7F1F92
:10306000DC015F96ED91FC91E60FF71F4770552745
:1030700081E090E001C0880F4A95EAF78095908141
:1030800089238083CACF9A0157FF02C0295F3F4F2F
:10309000359527953595279535952795FC01A4817C
:1030A000B5812A9FF0012B9FF00D3A9FF00D11245E
:1030B0006E0F7F1FDC015F96ED91FC91E60FF71F0D
:1030C0004770552721E030E001C0220F4A95EAF70A
:1030D0008081822B8083A1CF1696ED91FC91E61B17
:1030E000F70BBA01AF014150510967CF1496ED912A
:1030F000FC91DF01A61BB70BBD0161507109DC011A
:103100001696ED91FC91DF01A41BB50BAD0141506A
:10311000510953CFE0910A0BF0910B0B81E083A38F
:103120000895CF93DF939091010B981751F1C62F1B
:10313000682F8093010B8EE10E9461938091010BB7
:103140006FEF70E0811102C070E060E088E00E94E3
:103150000299CC23B1F0C091060BD091070B80915E
:10316000010B811111C084E493E09AA389A30E940A
:10317000CA7468517C4F8F4F9F4F6BA77CA78DA758
:103180009EA7DF91CF91089589E393E0EECFCF938F
:1031900081309105B1F1F4F08230910599F00497F6
:1031A00079F48091010BC1E061E08C270E949118B5
:1031B000E0910A0BF0910B0B8091010B81ABC4AB3A
:1031C000CF9108958091020B8823A9F11092020BF0
:1031D000CF910895892BA1F7E091060BF091070B91
:1031E00085A98F5F843060F115AA90E080E0E091BE
:1031F0000A0BF0910B0B90AB87A781E083ABCF91CB
:103200000895E091060BF091070B86A997A99C0100
:103210002F5F3F4F25303105B4F017AA16AA8FEF64
:103220009FEFE0910A0BF0910B0B96A785A781E029
:1032300082ABCF91089581E08093030BCF910895E5
:1032400085AB90E0D4CF37AB26ABEBCF0F931F937A
:10325000DC01ED91FC91048CF58DE02D19951F9109
:103260000F9108956F927F928F929F92AF92BF922B
:10327000CF92DF92EF92FF920F931F93CF93DF9342
:103280006C01EB015A0139014801FC01A081B181B7
:103290001A96ED91FC911B9781E6E43CF80799F5AD
:1032A0006C0E7D1EC615D705C4F45096ED91FC91A9
:1032B000519789E1E632F80719F45C96ED91FC919B
:1032C00087019401A501BE01C60119952196F60159
:1032D000A081B181C615D70541F75696ED91FC91B5
:1032E00081E6E43CF807A9F4DF91CF911F910F919B
:1032F000FF90EF90DF90CF90BF90AF909F908F9016
:103300007F906F900895C6011995F601A081B18153
:10331000C7CFC601DF91CF911F910F91FF90EF9022
:10332000DF90CF90BF90AF909F908F907F906F90E5
:1033300019940F931F93DC01ED91FC91068CF78D8E
:10334000E02D19951F910F9108956F927F928F92A2
:103350009F92AF92BF92CF92DF92EF92FF920F9324
:103360001F93CF93DF93EC016B015A0139014801A0
:10337000A881B9811A96ED91FC911B9781E6E43CF6
:10338000F80709F06AC05296ED91FC91539789E1D4
:10339000E939F80719F45E96ED91FC9187019301E4
:1033A000A501B601CE011995A881B9815296ED917A
:1033B000FC915397A501480D591D4150510989E1D0
:1033C000E939F80719F45E96ED91FC9187019301B4
:1033D000B601CE011995A881B9815096ED91FC9165
:1033E000519789E1E632F80719F45C96ED91FC916A
:1033F00087019401A501B601CE011995A881B98173
:103400005096ED91FC915197C60CD71CB6016150B6
:10341000710989E1E632F80719F45C96ED91FC91A7
:1034200087019401A501CE011995E881F9810688EB
:10343000F789E02D81E6E43CF807A1F4DF91CF9114
:103440001F910F91FF90EF90DF90CF90BF90AF90C2
:103450009F908F907F906F900895CE011995A881CD
:10346000B98191CFCE01DF91CF911F910F91FF9044
:10347000EF90DF90CF90BF90AF909F908F907F9014
:103480006F9019940895FC016370668B8481958117
:1034900026813781613039F0633029F09187808748
:1034A00033872287089531872087938782870895FD
:1034B000EF92FF920F931F93DC01ED91FC9100A01E
:1034C000F1A1E02D19951F910F91FF90EF900895B4
:1034D0002F923F924F925F926F927F928F929F9224
:1034E000AF92BF92CF92DF92EF92FF920F931F9312
:1034F000CF93DF93CDB7DEB76A970FB6F894DEBFF0
:103500000FBECDBF1C014B01588B4F872E831987EF
:1035100008873701CD82AC86FC01218D328D2115C3
:10352000310509F40AC1F901349694913297459115
:1035300054918E81891B97E0899F400D511D112464
:10354000F901259134913C832B83FA01C590D490E5
:10355000FA0132964490319634913D8732968491A7
:103560008F8B3196B4909D81923008F4DDC02F8905
:10357000022E000C330B3B872A874B2D0B2C000CA3
:10358000550B5C8B4B8BF101A081B1811A96ED91AB
:10359000FC911B9721E6E43CF20709F0B0C1FD85E0
:1035A000FF2309F48EC0512C198AA12C3C85232FAE
:1035B00030E03F832E835D81452F50E05A8349835D
:1035C0008F8598898B0D911DB7FC9A959E8B8D8B5D
:1035D000F4012F89E20FF11D27FDFA95F88FEF8B8B
:1035E00030E0398F442009F467C02A2D30E08B8900
:1035F0009C89820F931F4E815F81849F3001859F3C
:10360000700C949F700C11248F859889680E791E18
:10361000852D1A8EED89FE89E20FF31FFA8BE98B57
:103620000AC0F98DFF0FF98F2A8D2F5F2A8F8B2DFE
:10363000241508F040C0BB24B394B80E877049F439
:10364000C6010196EB81FC81EC0DFD1D2491298FB3
:103650006C01398D37FFE5CF4A8D642F70E05D81B5
:10366000513009F44FC01E96ED91FC911F972A85A9
:103670003B85620F731F49815A81649FC001659F1A
:10368000900D749F900D1124BC01680D791D5AE1B5
:10369000E835F50719F49096ED91FC91E884F984EA
:1036A0000E811F8129813A81A301C1011995F10180
:1036B000A081B181B6CF540CA3943D85A31608F424
:1036C00091CF5696ED91FC9141E6E43CF40709F068
:1036D000FCC06A960FB6F894DEBF0FBECDBFDF9177
:1036E000CF911F910F91FF90EF90DF90CF90BF90FF
:1036F000AF909F908F907F906F905F904F903F9092
:103700002F9008958C85813009F0ADCFEF89F88D29
:103710006E0F7F1F1C96ED91FC9128853985498994
:103720005A89C1011995C3CFEA2DE23008F01FCFA5
:103730001C8A1B8A1B861A8626CF8085918568176E
:1037400079073CF6828593854817590714F62C2D86
:1037500030E03A832983AB0186E0C89E400D511DBD
:1037600011245E874D87141615060CF0B2CF4A2C33
:10377000512CF201EE0FFF1FEE0FFF1FEE0FFF1F88
:10378000FC8BEB8BCF012F853889820F931F181686
:1037900019060CF09ECFF101808D811105C0FE81CC
:1037A000F03B10F0FF5FFE83F101A081B1811A961A
:1037B000ED91FC911B9721E6E43CF20709F0D0C0A3
:1037C0009C828B822E8145E0249F90011124215FF1
:1037D000304F3F832E83A4014B5F5F4F5B874A8747
:1037E000EE81FF818491AF84B888D12CC12C23C095
:1037F0003D81313009F489C01E96ED91FC91E88439
:10380000F984820129813A81A501B401C101199588
:10381000F101A081B18129893A89359527953A8BA3
:10382000298B89893FEFC31AD30AA40CB51C48E041
:10383000C416D104A1F0282F30E03A8B298B80FDEB
:10384000D7CF288539852615370529F33D813130B5
:1038500009F46DC01E96ED91FC917301D2CF8E815B
:103860009F8101969F838E83EB81FC813196FC833F
:10387000EB8329813A81820E931E4A855B854E1720
:103880005F0709F0ADCF8885998586159705A9F062
:103890009D81913009F454C06D857E85621B730B48
:1038A0001E96ED91FC9173010B891C894F855889F7
:1038B000C1011995F101A081B1815696ED91FC915C
:1038C00021E6E43CF20709F404CFC1016A960FB681
:1038D000F894DEBF0FBECDBFDF91CF911F910F9146
:1038E000FF90EF90DF90CF90BF90AF909F908F9020
:1038F0007F906F905F904F903F902F901994C101EF
:103900001995F101A081B1814ACE4C85413009F071
:1039100073CF1C96ED91FC91288539854F85588988
:103920004C0D5D1D6B817C81C101199571CF4C855A
:10393000413009F08FCF1C96ED91FC919301EECFB1
:10394000EC85E13009F0A8CFBA015096ED91FC91D9
:10395000830128E030E04F855889C1011995AACF2D
:10396000C1011995F101A081B1812ACF8F929F9257
:10397000AF92CF92EF92FF920F931F93CF93DF936B
:10398000EC01898D9A8D009709F480C06A3009F4A2
:1039900062C06D3009F46DC0FC0134962491621749
:1039A00008F467C03296E491E61708F462C0FC019F
:1039B000329685909490F62FF21B37E0F39F800C9F
:1039C000911C1124F401329624913196E491AC8536
:1039D000BD85CC882223A9F1EE2399F1F401359617
:1039E000E491AD884E855F853F893323F1F00E2E3B
:1039F000000CFF0BE20FF11DCE9E9001CF9E300D0B
:103A000011242A0F3B1FE885F985E217F3076CF4B0
:103A10001D861C860896FC018491A89E400D511DB0
:103A200011245F874E87B0E0A0E0EA88FB88088910
:103A30001989262FBD01CE010E94681ACC88AC8559
:103A4000BD85F4013496E491EC9DA00DB11D1124C7
:103A5000BD87AC870EC01D861C86FC013896E4919C
:103A60002D898E859F85E29F800D911D11249F8752
:103A70008E8781E090E0DF91CF911F910F91FF90B1
:103A8000EF90CF90AF909F908F9008956A30D1F1D2
:103A90006D3079F38C859D85CC88AD884E855F85AA
:103AA0002F892223D9F0E885F9859C0176E0C79E0D
:103AB000200D311D1124E217F30784F41D861C86A6
:103AC0008A2D90E0880F991F880F991F880F991FE2
:103AD000480F591F5F874E8790E080E0EA88FB8897
:103AE00008891989262FBC01CE010E94681A2C89E9
:103AF0008C859D85E6E02E9F800D911D11249D876C
:103B00008C87B7CF1D861C868D8990E0880F991F02
:103B1000880F991F880F991F2E853F85820F931F4D
:103B2000A6CF6F927F928F929F92AF92BF92CF92C9
:103B3000DF92EF92FF920F931F93CF93DF934C018D
:103B40006B01EA0159013801FC01A081B1816217C2
:103B5000730709F43FC04017510759F11A96ED91C8
:103B6000FC911B9781E6E43CF80709F05CC0549691
:103B7000ED91FC9183019501AE01B601C401199547
:103B8000D401ED91FC910688F789E02DB1E6E43C83
:103B9000FB07C9F5DF91CF911F910F91FF90EF9037
:103BA000DF90CF90BF90AF909F908F907F906F905D
:103BB00008952617370714F596012A193B092F5F38
:103BC0003F4F5E96ED91FC918701AE01B501C401B6
:103BD0001995E0CF0417150764F49E0126193709DB
:103BE0002F5F3F4F5C96ED91FC918701A301B601D9
:103BF000EECF872D3A01C02FD82FEFCF8B2D5B0151
:103C0000C22ED82ED9CFC401DF91CF911F910F9131
:103C1000FF90EF90DF90CF90BF90AF909F908F90EC
:103C20007F906F901994C4011995F401A081B1811E
:103C30009ECFEF92FF920F931F93DC011A960D9186
:103C40001C911B9718962D913C911997ED91FC9121
:103C500000A0F1A1E02D7B0150E040E070E060E0C9
:103C600019951F910F91FF90EF9008958F929F9259
:103C7000AF92BF92CF92DF92EF92FF920F931F937A
:103C8000CF93DF936C015B014A01E901FC01A08144
:103C9000B1811A96ED91FC911B9781E6E43CF807FF
:103CA00029F595012C0F3D1F215031095496ED91B6
:103CB000FC9178018401A401B501C6011995D601D2
:103CC000ED91FC910688F789E02DB1E6E43CFB0715
:103CD00099F4DF91CF911F910F91FF90EF90DF90BA
:103CE000CF90BF90AF909F908F900895C601199587
:103CF000F601A081B181D5CFC601DF91CF911F918F
:103D00000F91FF90EF90DF90CF90BF90AF909F907A
:103D10008F9019948F929F92AF92BF92CF92DF9221
:103D2000EF92FF920F931F93CF93DF936C015B0190
:103D30004A01E9017801FC01A081B1811A96ED9157
:103D4000FC911B9781E6E43CF80721F5C80DD91DCD
:103D50008E01015011095496ED91FC919501A40139
:103D6000B501C6011995D601ED91FC910688F78938
:103D7000E02DB1E6E43CFB0799F4DF91CF911F9170
:103D80000F91FF90EF90DF90CF90BF90AF909F90FA
:103D90008F900895C6011995F601A081B181D6CF03
:103DA000C601DF91CF911F910F91FF90EF90DF90AF
:103DB000CF90BF90AF909F908F901994DC01ED91C0
:103DC000FC910084F185E02DB7E1EE3BFB0709F0A3
:103DD00051C077FD4EC0DC011896ED91FC9119970A
:103DE0006E177F070CF045C057FD43C01A96ED9142
:103DF000FC911B974E175F07E4F55696EC9156978A
:103E0000E23009F49EC0E33009F491C0E130A1F141
:103E10002130310509F463C0C8F12230310559F56C
:103E20009A0157FF02C0295F3F4F35952795359579
:103E3000279535952795FC01A481B5812A9FF0012E
:103E40002B9FF00D3A9FF00D11246E0F7F1FDC01A8
:103E50005F96ED91FC91E60FF71F4770552721E023
:103E600030E001C0220F4A95EAF7808182278083E3
:103E700008950895199408951496ED91FC91E41B0A
:103E8000F50BAB01BF0161507109C2CF9A0157FF19
:103E900002C0295F3F4F3595279535952795359574
:103EA0002795FC01A481B5812A9FF0012B9FF00D7D
:103EB0003A9FF00D11246E0F7F1FDC015F96ED918C
:103EC000FC91E60FF71F4770552781E090E001C095
:103ED000880F4A95EAF7809590818923C8CF9A0187
:103EE00057FF02C0295F3F4F359527953595279598
:103EF00035952795FC01A481B5812A9FF0012B9F60
:103F0000F00D3A9FF00D11246E0F7F1FDC015F96BC
:103F1000ED91FC91E60FF71F4770552721E030E047
:103F200001C0220F4A95EAF78081822BA0CF169616
:103F3000ED91FC91E61BF70BBA01AF01415051091D
:103F400067CF1496ED91FC91DF01A61BB70BBD0165
:103F500061507109DC011696ED91FC91DF01A41B03
:103F6000B50BAD014150510953CF2F923F924F9263
:103F70005F926F927F928F929F92AF92BF92CF92F9
:103F8000DF92EF92FF920F931F93CF93DF9300D0B6
:103F900000D01F921F92CDB7DEB75C016B0158872E
:103FA0004F832801FC82EB824801841A950A340170
:103FB00097FE04C06624772468187908C9018C1913
:103FC0009D097C0197FF04C0EE24FF24E81AF90A3A
:103FD0001701E614F7046CF013014C01942D852DA4
:103FE0002901292F382F9F818885D886CF82C92E15
:103FF000D82E8F81988548165906DCF44C01841818
:1040000095081601221A330A37FC8CC184011595D4
:1040100007952C153D050CF4BAC0AFEFBFEFBE837A
:10402000AD8369019F81888558864F82492E582E1D
:104030000DC0840197FC81C115950795C216D30662
:104040000CF4A0C0AFEFBFEFBE83AD832F813885E6
:1040500037FD17C1F501A081B1811C96ED91FC914E
:104060001D97E614F7040CF097C02EE1EE3DF20721
:1040700009F0F9C01896ED91FC9137E1EE3BF3079A
:1040800009F0F1C0D7FC51C0D50118968D919C91D3
:104090001997C816D9060CF048C0EF81F885F7FDCE
:1040A00044C01A968D919C911B97E817F907ECF57F
:1040B00056968C915697823009F448C1833009F4A2
:1040C0005CC1813009F495C1CF01F6012B813C819F
:1040D0002130310509F095C09C0197FF02C0295F8E
:1040E0003F4F359527953595279535952795D501DA
:1040F00014966D917C911597269FA001279F500DD6
:10410000369F500D11244E0F5F1F5F96ED91FC916D
:10411000E40FF51F8770992721E030E001C0220FDE
:104120008A95EAF78081822B80830219130917FF91
:1041300006C0ED81FE81CE0EDF1E080D191D2F81F8
:1041400038852F5F3F4F38872F83421653060CF078
:1041500081CF28960FB6F894DEBF0FBECDBFDF919A
:10416000CF911F910F91FF90EF90DF90CF90BF9074
:10417000AF909F908F907F906F905F904F903F9007
:104180002F900895E1E0F0E0FE83ED835FCFE1E062
:10419000F0E0FE83ED8345CF2EE1EE3DF20709F01E
:1041A0006AC01896ED91FC9137E1EE3BF30709F0F8
:1041B00062C0D50118968D919C911997EF81F88571
:1041C000E817F9070CF0B1CFD7FCAFCF1A968D9155
:1041D0009C911B97C816D9060CF0A7CF56968C91C8
:1041E0005697823009F4C1C0833009F40AC1813086
:1041F00009F4CAC0C6012B813C812130310509F484
:104200006BCF2130310508F4C7C02230310509F0E9
:104210008CCF9C0197FF02C0295F3F4F35952795B2
:104220003595279535952795D50114966D917C91F7
:104230001597269FA001279F500D369F500D1124E2
:104240004E0F5F1F5F96ED91FC91E40FF51F877095
:10425000992721E030E001C0220F8A95EAF780819A
:104260008227808362CF2B813C814F815885B601A4
:10427000C50119955ACF2B813C81A6016F817885A4
:10428000F7CFC20101969A8389831816190614F58F
:104290001A8219821FC02EE1EE3DF207C1F5189671
:1042A000ED91FC9137E1EE3BF30789F50219130913
:1042B00017FF06C0AD81BE81CA0EDB1E080D191D99
:1042C000EF81F8853196F887EF8329813A81E217EB
:1042D000F3071CF5F501A081B1811C96ED91FC91CD
:1042E0001D97E614F704BCF28EE1EE3DF80739F4B1
:1042F0001896ED91FC9197E1EE3BF907B9F22B810D
:104300003C81A6016F817885C5011995CFCF2B819E
:104310003C814F815885B601F7CF4E165F060CF0F1
:1043200099CE17CF319421943108840115950795C2
:104330002C153D050CF42BCF70CE0F5F1F4F15953C
:104340000795C216D3060CF41DCF7CCE9F011496A0
:10435000ED91FC911597EC19FD09319716968D9109
:104360009C91821B930B019746CF9F011496ED9170
:10437000FC911597E21BF30B319716968D919C914A
:104380008C199D09019737CFCF011496ED91FC91BF
:10439000EC19FD0931972FCF9C0197FF02C0295FCF
:1043A0003F4F359527953595279535952795D50117
:1043B00014966D917C911597269FA001279F500D13
:1043C000369F500D11244E0F5F1F5F96ED91FC91AB
:1043D000E40FF51F8770992721E030E002C0220F1B
:1043E000331F8A95E2F7922F9095808189238083ED
:1043F0009CCE9F011496ED91FC91E21BF30B31973B
:10440000F9CE16968D919C918E1B9F0B0197F6010C
:104410005DCE089590E080E008950F931F93CF93B1
:10442000DF93EC018DE692E0998388830FA918ADA4
:104430000115110541F0F801868197810E9415ABA5
:10444000C8010E9415AB8DA99EA9DF91CF911F9144
:104450000F910C9415AB0F931F93CF93DF93EC0147
:104460008DE692E0998388830FA918AD0115110597
:1044700041F0F801868197810E9415ABC8010E9426
:1044800015AB8DA99EA90E9415ABCE01DF91CF91EE
:104490001F910F910C9415ABCF93DF93EC0185E640
:1044A00092E099838883FE01E25BFF4F828188233B
:1044B00021F0808191810E9415AB8AA5882321F08B
:1044C00088A599A50E9415AB8C81811103C0DF914D
:1044D000CF9108958A819B81DF91CF910C9415AB88
:1044E000CF93DF93EC0185E692E099838883FE0108
:1044F000E25BFF4F8281882321F0808191810E94BD
:1045000015AB8AA5882321F088A599A50E9415AB33
:104510008C81882321F08A819B810E9415ABCE017A
:10452000DF91CF910C9415AB0F931F93CF93DF9333
:10453000EFB7F8940091F20B1091F30B2091F40B6C
:104540003091F50BEFBFFC01008B118B228B338B6D
:10455000C481D581E881F9810280F381E02D8CE767
:10456000E33FF807A1F48C85883038F080E090E0D4
:10457000DF91CF911F910F9108958A010E94317CA4
:10458000892B59F481E090E09B838A83EFCFCE01A1
:10459000DF91CF911F910F911994C801DF91CF91B5
:1045A0001F910F9108950F931F93CF93DF931F9245
:1045B000CDB7DEB74FB7F8940091F20B1091F30B23
:1045C0002091F40B3091F50B4FBFFC01008B118B48
:1045D000228B338B04811581F801A081B181ED918B
:1045E000FC9111978DE7EE35F80719F5698312965E
:1045F000ED91FC918CE7E33FF80759F5F8018485CC
:10460000883040F090E080E00F90DF91CF911F91D3
:104610000F91089541E050E0BE016F5F7F4F0E940F
:10462000317C892B71F481E090E0F80193838283DF
:10463000E9CFC80119950F90DF91CF911F910F918C
:10464000089581E090E00F90DF91CF911F910F913D
:10465000089541E050E0BE016F5F7F4FC80119959A
:104660000F90DF91CF911F910F9108954F925F921C
:104670006F927F92AF92BF92CF92DF92EF92FF92B2
:104680000F931F93CF93DF931F92CDB7DEB78C01AB
:104690005B018FB7F8944090F20B5090F30B609051
:1046A000F40B7090F50B8FBF1CC08FB7F894C090BF
:1046B000F20BD090F30BE090F40BF090F50B8FBF62
:1046C000C418D508E608F708F80124853585A8EE52
:1046D000B3E00E9438B2C616D706E806F90608F01D
:1046E00045C0F801A481B581ED91FC91119700843A
:1046F000F185E02D8EE7E730F807A9F51C968C913F
:10470000883098F60E94A27D892B79F2F801A48165
:10471000B581ED91FC9111970284F385E02D82E83B
:10472000E538F80729F541E050E0BE016F5F7F4FA3
:104730001C968C910E94617E18161906E4F48981FA
:10474000F501808381E00F90DF91CF911F910F9150
:10475000FF90EF90DF90CF90BF90AF907F906F90E1
:104760005F904F900895CD011995CECF80E0EBCFAB
:10477000CD011995E5CF8FEFE3CF2F923F924F9266
:104780005F926F927F928F929F92AF92BF92CF92E1
:10479000DF92EF92FF920F931F93CF93DF9300D09E
:1047A00000D000D0CDB7DEB75C011B01DC0116964E
:1047B0006D917C910E943623882309F465C0D50150
:1047C0001696ED91FC9100810A83198201E010E0B8
:1047D000412C512C3201C12CD12C7601C394BE0145
:1047E0006F5F7F4FC5010E943623882309F44CC0B8
:1047F0004801BFEF8B1A9B0A8981D5011696ED916E
:10480000FC91E00FF11F8083E981AE2FAF77B0E01C
:10481000A70196010E9403B2460E571E681E791E1C
:10482000CC0CDD1CEE1CFF1CCC0CDD1CEE1CFF1C9C
:10483000CC0CDD1CEE1CFF1CCC0CDD1CEE1CFF1C8C
:10484000CC0CDD1CEE1CFF1CCC0CDD1CEE1CFF1C7C
:10485000CC0CDD1CEE1CFF1CE7FF32C084010530D0
:10486000110509F0BCCF8FEF9FEFD50198969C936F
:104870008E93979714968D919C91DC01ED91FC910C
:104880000488F589E02D199560E070E0CB01299648
:104890000FB6F894DEBF0FBECDBFDF91CF911F9151
:1048A0000F91FF90EF90DF90CF90BF90AF909F90CF
:1048B0008F907F906F905F904F903F902F900895D2
:1048C0008FEF880DF10180838A81807F803309F426
:1048D0003FC06401F12CE12C4114510461047104C6
:1048E00061F14C0C5D1C6E1C7F1C1AC0F5018085AB
:1048F00091858816990650F489810680F781E02D0C
:10490000E80DF91D8083FFEF8F1A9F0A0FEFC01A81
:10491000D00AE00AF00A4C145D046E047F0469F0CA
:10492000BE016F5F7F4FC5010E9436238111DECF2C
:10493000ABCFCA80DB80EC80FD80D50195968D9150
:104940009C91892B09F4B2C0B40190E080E09FCF24
:10495000D50116966D917C91680D791DC5010E9457
:104960003623882309F490CFF50166817781C80149
:104970000296680F791FC5010E943623882309F427
:1049800083CF4801F3E08F0E911CD5011696ED916F
:10499000FC91D1018C91DF01A80FB11D11968C9172
:1049A000119790E0982F882712962C91820F911DD5
:1049B000208121FD0296840130E020E00A831B83E0
:1049C0002C833D8313E0411651046104710408F403
:1049D000B0CFCA80DB80EC80FD8012E0C11AD10824
:1049E000E108F108C40CD51CE61CF71C2EEF422E82
:1049F00055245A94652C752C9C0150E040E02E8380
:104A00003F834887598749C0D50195968D919C91E0
:104A1000009709F1F1012081B301A201421B510964
:104A2000610971090A811B812C813D81400F511F51
:104A3000621F731F0E811F81288539850417150792
:104A40002607370740F4DC01ED91FC910190F081DD
:104A5000E02D69811995F501808591858816990663
:104A600050F489810680F781E02DE80DF91D8083DF
:104A7000FFEF8F1A9F0A0A811B812C813D810F5FF6
:104A80001F4F2F4F3F4F0A831B832C833D830C15F1
:104A90001D052E053F0509F450CFBE016F5F7F4F06
:104AA000C5010E9436238111AFCFEECEF50180857E
:104AB0009185B0E0A0E08C159D05AE05BF0508F41A
:104AC000E3CE42CFBF92CF92DF92EF92FF920F934D
:104AD0001F93CF93DF93DC015D968D919C915E9740
:104AE000009709F462C0E42EF72ED62EED0129A11D
:104AF00031E030939C0B20939B0B1092A00B1092F3
:104B00009F0BDC01ED91FC910190F081E02D60E0C4
:104B100019958D8D9E8D0D2D1F2DEA94E00EF12E91
:104B2000F11CCC24C394D12CBB24B39422C08D8D12
:104B30009E8DB0E2CB16D104D1F40E9459998D8D8F
:104B40009E8D29A1B0929C0B20939B0B1092A00BE1
:104B500010929F0BDC01ED91FC910190F081E02D12
:104B600060E019958D8D9E8DCC24C394D12C0F5F60
:104B70001F4FF8016491DC01ED91FC910190F081EF
:104B8000E02D1995BFEFCB1ADB0A0E151F0579F63C
:104B90008D8D9E8DDF91CF911F910F91FF90EF90A2
:104BA000DF90CF90BF900C9459999D96ED91FC9118
:104BB0009E979081D3968C91D397809589238083FB
:104BC000FB01460F572F511D4E175F0789F0849147
:104BD0005B962D913C915C97232BA1F08EBD00003C
:104BE0000DB407FEFDCF8EB531964E175F0779F7EE
:104BF000DF91CF911F910F91FF90EF90DF90CF90B9
:104C0000BF9008959996CD91DC919A97D1969C91F9
:104C1000D197288187FD17C19095922398839B9601
:104C2000CD91DC919C979881D2962C91D297922B22
:104C300098839B96CD91DC919C972881D2969C91EC
:104C4000D2979095922398839996CD91DC919A97DB
:104C5000D1969C91D197288186FDF3C0909592239F
:104C600098839B96CD91DC919C979881D2962C91BC
:104C7000D297922B98839B96CD91DC919C9728811B
:104C8000D2969C91D2979095922398839996CD91A4
:104C9000DC919A97D1969C91D197288185FDCFC0C0
:104CA0009095922398839B96CD91DC919C979881C7
:104CB000D2962C91D297922B98839B96CD91DC9192
:104CC0009C972881D2969C91D29790959223988315
:104CD0009996CD91DC919A97D1969C91D197288104
:104CE00084FDABC09095922398839B96CD91DC91E7
:104CF0009C979881D2962C91D297922B98839B96D1
:104D0000CD91DC919C972881D2969C91D2979095D9
:104D1000922398839996CD91DC919A97D1969C9104
:104D2000D197288183FD87C09095922398839B9685
:104D3000CD91DC919C979881D2962C91D297922B11
:104D400098839B96CD91DC919C972881D2969C91DB
:104D5000D2979095922398839996CD91DC919A97CA
:104D6000D1969C91D197288182FD63C09095922322
:104D700098839B96CD91DC919C979881D2962C91AB
:104D8000D297922B98839B96CD91DC919C9728810A
:104D9000D2969C91D2979095922398839996CD9193
:104DA000DC919A97D1969C91D197288181FD3FC043
:104DB0009095922398839B96CD91DC919C979881B6
:104DC000D2962C91D297922B98839B96CD91DC9181
:104DD0009C972881D2969C91D29790959223988304
:104DE0009996CD91DC919A97D1969C91D19780FF1D
:104DF0001AC08881982B98839B96CD91DC919C97C3
:104E00008881D2969C91D297892B88839B96CD914D
:104E1000DC919C979881D2968C91D297809589232A
:104E200088833196E2CE888190959823E4CF922BA7
:104E3000C1CF922B9DCF922B79CF922B55CF922B16
:104E400031CF922B0DCF922BE9CE1F93CF93DF93CF
:104E5000EC018D8D9E8D0097A9F4ADA5BEA59C910A
:104E60008BA9809589238C938B8D9C8D892B71F1D7
:104E70006EBD00000DB407FEFDCF8EB5DF91CF9162
:104E80001F910895162F29A131E030939C0B209398
:104E90009B0B1092A00B10929F0BDC01ED91FC91EB
:104EA0000190F081E02D60E019958D8D9E8DDC01E3
:104EB000ED91FC910190F081E02D612F19958D8D80
:104EC0009E8DDF91CF911F910C945999A9A5BAA5F8
:104ED00089A99C9167FDADC0809589238C93ABA572
:104EE000BCA58C919AA9892B8C93ABA5BCA59C9150
:104EF0008AA9809589238C93A9A5BAA589A99C9193
:104F000066FDA6C0809589238C93ABA5BCA58C912A
:104F10009AA9892B8C93ABA5BCA59C918AA9809555
:104F200089238C93A9A5BAA589A99C9165FD8EC0FA
:104F3000809589238C93ABA5BCA58C919AA9892BCC
:104F40008C93ABA5BCA59C918AA9809589238C9351
:104F5000A9A5BAA589A99C9164FD76C080958923ED
:104F60008C93ABA5BCA58C919AA9892B8C93ABA5EE
:104F7000BCA59C918AA9809589238C93A9A5BAA5E3
:104F800089A99C9163FD5EC0809589238C93ABA514
:104F9000BCA58C919AA9892B8C93ABA5BCA59C919F
:104FA0008AA9809589238C93A9A5BAA589A99C91E2
:104FB00062FD46C0809589238C93ABA5BCA58C91DE
:104FC0009AA9892B8C93ABA5BCA59C918AA98095A5
:104FD00089238C93A9A5BAA589A99C9161FD2EC0AE
:104FE000809589238C93ABA5BCA58C919AA9892B1C
:104FF0008C93ABA5BCA59C918AA9809589238C93A1
:10500000A9A5BAA589A99C9160FF15C0892B8C938D
:10501000ABA5BCA58C919AA9892B8C93ABA5BCA5FB
:105020009C918AA9809589238C93DF91CF911F91C0
:105030000895892B53CF80958923E9CF892BD2CF2F
:10504000892BBACF892BA2CF892B8ACF892B72CFFC
:10505000892B5ACF0F931F93CF93DF93FC01A48129
:10506000B581109779F0EC01ED91FC9111970688CC
:10507000F789E02DCD01199581110AC08FA198A55E
:10508000892B81F080E0DF91CF911F910F910895DE
:1050900081E02FA138A5232BA9F7DF91CF911F9194
:1050A0000F9108958DEF9FEF98A78FA30C811D811D
:1050B000D801ED91FC910680F781E02DB8E8E73644
:1050C000FB0779F01CC00E94A882873111F08C3157
:1050D00061F4D8011C968C910E94C57B8115984083
:1050E00020F4F8018485883070F38C819D81DC0187
:1050F000ED91FC910488F589E02D1995C3CFC80185
:105100001995F3CF6F927F928F929F92AF92BF9239
:10511000CF92DF92EF92FF920F931F93CF93DF9383
:1051200000D01F92CDB7DEB74C01962F7A015901FE
:10513000822F8F77A901440F452F441F550B51959E
:105140004115510509F476C020E0BE016F5F7F4F25
:10515000E1E0E20FDB01A20FB11D80688C93842F88
:105160008F77440F452F441F550B5195411551051D
:1051700011F02E2FEDCFE60FF72FF11D80832E5F5C
:1051800030E0F701E21BF30B948389010F5F1F4F9F
:1051900085E090E06C01C01AD10A821B930B2115A7
:1051A000310551F08E0D9F1DA9011216130614F042
:1051B00041E050E00E9483B3D40114966D907C903E
:1051C000D301ED91FC910280F381E02D0A0D1B1DAE
:1051D000EC0CFD1CBCE7E33FFB07E9F5F30184851C
:1051E000883008F442C021E0012BE9F53FB7F8947C
:1051F0008091F20B9091F30BA091F40BB091F50B11
:105200003FBFF401808B918BA28BB38B822F0F90C9
:105210000F900F900F90DF91CF911F910F91FF9002
:10522000EF90DF90CF90BF90AF909F908F907F9046
:105230006F9008958983D70113969C9383E0C82EBD
:10524000D12C02E010E084E090E021E030E0BE01EB
:105250006F5F7F4FA7CFA801B701C301199521E068
:105260000817190719F220E0C1CFA801B7010E9461
:10527000317C21E0892B09F0B9CF81E090E0D301A6
:1052800013969C938E931297AECFEF92FF920F934B
:105290001F93CF93DF938C01EB01DC011896ED9007
:1052A000FC90B701CE010E9468AC0996E816F90699
:1052B00040F480E0DF91CF911F910F91FF90EF902C
:1052C0000895C8010E942A28882399F3F801868549
:1052D0009785019609F445C097878687892FD8015D
:1052E0001696ED91FC91179785831696ED91FC919A
:1052F00017971E968C911E97868316960D90BC91DB
:10530000A02D8881882399F1FD013996219630E0FE
:1053100020E001C09A01B901665F7F4F8193A90126
:105320004F5F5F4F89918111F5CF641B750BFB01B6
:105330003297852F615071092B5F3F4FEA0FFB1F9A
:105340008083A60FB71F4C93F8014681578162EA0C
:10535000C801DF91CF911F910F91FF90EF900C94B6
:10536000822881E090E09787868780E0B8CF24E0AC
:1053700030E040E068E070E080E0E7E0F0E0DECFC1
:10538000EF92FF920F931F93CF93DF938C01EB016A
:10539000DC011896ED90FC90B701CE010E9468AC3C
:1053A0000996E816F90640F480E0DF91CF911F914D
:1053B0000F91FF90EF900895C8010E942A2888233A
:1053C00099F3F80186859785019609F44AC0978775
:1053D0008687892FD8011696ED91FC9117978583C2
:1053E0001696ED91FC9117971E968C911E978683C9
:1053F00016960D90BC91A02D88818823C1F1FD01E6
:105400003996219630E020E001C09A01B901665F2B
:105410007F4F8193A9014F5F5F4F89918111F5CF34
:10542000CB01841B950BFC01329701972A5F3F4FFC
:10543000EA0FFB1F5083A80FB91F4C93F801868118
:105440009781680F791FDB011C924681578162E8C2
:10545000C801DF91CF911F910F91FF90EF900C94B5
:10546000822881E090E09787868780E0B3CF25E0AF
:1054700030E040E088E090E050E0E7E0F0E069E014
:1054800070E0D6CF8F929F92AF92BF92CF92DF9271
:10549000EF92FF920F931F93CF93DF938C016B01D9
:1054A0004A014115510509F47CC0DC0118966D9143
:1054B0007C91CA010E9468AC7C01C8010E942A2824
:1054C000882309F460C0E801A884B984B501C60145
:1054D0000E9468AC9701295F3F4F820F931FA81667
:1054E000B90608F450C06E817F81F601808188235F
:1054F00009F45AC0AB01495F5F4FD601119630E005
:1055000020E0F9013896EA018993AE012F5F3F4F01
:105510008D918111F6CFCF01821B930BDC01129785
:105520000197A60FB71F3C93680F791FDB012C93DF
:105530009F01E114F10491F0E401EE0EFF1E9F01C2
:105540002F5F3F4F8991D80116966D917C91E60FA0
:10555000F71F8083F901E216F30689F72550310918
:10556000E8014E815F8160E3C801DF91CF911F9117
:105570000F91FF90EF90DF90CF90BF90AF909F90F2
:105580008F900C94822880E0DF91CF911F910F9132
:10559000FF90EF90DF90CF90BF90AF909F908F9053
:1055A0000895F12CE12C89CF20E086E090E030E0F6
:1055B000A5E0B0E0E7E0F0E0B4CFEF92FF920F9308
:1055C0001F93CF93DF93CDB7DEB763970FB6F894F1
:1055D000DEBF0FBECDBF8C01FB01E090910BF090C0
:1055E000920BCA014A30510510F089E090E0411554
:1055F000510551F1208129834230510528F1218143
:105600002A834230510501F122812B834330510519
:10561000D9F023812C8344305105B1F024812D83AE
:105620004530510589F025812E834630510561F0C2
:1056300026812F834730510539F02781288748304C
:10564000510511F02085298721E030E02C0F3D1F06
:10565000820F931FDC011C926FE473E0C8010E946B
:10566000A5B3892B09F44EC06DE673E0C8010E9412
:10567000A5B3892B49F16BE873E0C8010E94A5B37B
:10568000892B09F06AC08E01055F1F4F89E0F80180
:1056900011928A95E9F7CE0101960E9446AC9E8749
:1056A0008D87D7019B96ED91FC91C8011995639662
:1056B0000FB6F894DEBF0FBECDBFDF91CF911F9123
:1056C0000F91FF90EF900895CE0101960E9442AC99
:1056D0000E943EB3072E000C880B990B0E94AEB0BF
:1056E00023E333E343E250E40E940DB10E943EB352
:1056F0006F3F710509F054F577FD2CC085E00E94DD
:105700000299D5CFCE0101960E9442AC0E943EB3D1
:10571000072E000C880B990B0E94AEB023E333E3F5
:1057200043E250E40E940DB10E943EB36F3F710509
:1057300009F024F477FD06C086E0E1CF6FEF70E05A
:1057400077FFFACF70E060E086E0D9CF6FEF70E0CE
:1057500077FFD4CF70E060E0D1CF6FE973E0C8018C
:105760000E94A5B3892BC1F4FE013D9687E0DF01BD
:105770001D928A95E9F781E090E09C878B87CE01A6
:1057800001960E9446AC9E878D87D7019B96ED912E
:10579000FC91CE010B968ACF64EB73E0C8010E94A6
:1057A000A5B3892BC1F4FE013D9687E0DF011D9270
:1057B0008A95E9F782E090E09C878B87CE0101967D
:1057C0000E9446AC21E01816190614F42F87DDCF8D
:1057D00020E02F87DACF6FEC73E0C8010E94A5B3F9
:1057E000892B21F56AEE73E0CE0101960E94A5B3E4
:1057F000892B91F4FE013D9687E0DF011D928A9589
:10580000E9F783E090E09C878B87D7019B96ED9129
:10581000FC91CE010B9619954AED54E06FEC73E0C4
:10582000F70187A990AD0E94422A41CF62EF73E051
:10583000C8010E94A5B3892B51F4FE013D9687E073
:10584000DF011D928A95E9F784E090E096CF6EE043
:1058500074E0C8010E94A5B3892B51F4FE013D9666
:1058600087E0DF011D928A95E9F785E090E085CF1A
:105870006AE274E0C8010E94A5B3892B51F4FE01CD
:105880003D9687E0DF011D928A95E9F786E090E07A
:1058900074CF66E474E0C8010E94A5B3892B19F1A6
:1058A00061E674E0C8010E94A5B3892B31F16CE771
:1058B00074E0C8010E94A5B3892B09F0F8CEFE015F
:1058C0003D9687E0DF011D928A95E9F789E090E037
:1058D0009C878B87CE0101960E9442AC688B798BA6
:1058E0008A8B9B8B52CFFE013D9687E0DF011D9294
:1058F0008A95E9F787E090E0EBCFFE013D9687E0DF
:10590000DF011D928A95E9F788E090E0E1CF7F9270
:105910008F929F92AF92BF92CF92DF92EF92FF92BF
:105920000F931F93CF93DF937C018B016A018FB795
:10593000F8948090F20B9090F30BA090F40BB09041
:10594000F50B8FBF712CC72DD0E0CC15DD05A8F568
:105950002FB7F8948091F20B9091F30BA091F40B78
:10596000B091F50B2FBF88199909AA09BB09843694
:105970009105A105B10508F059C0D7018D919C9101
:10598000DC01ED91FC910084F185E02D199518164C
:105990001906F4F6F70180819181DC01ED91FC910B
:1059A0000284F385E02D19957394C00FD11F88836D
:1059B000C72DD0E0CC15DD0558F2AE01425051099B
:1059C000D8019801225031092C0F3D1F6FEF7FEF56
:1059D000ED91872F9927E627F0E0EE0FFF1FE451A6
:1059E000F44E6591749168277927A217B30781F760
:1059F000F801EC0FFD1F31978081040F151FF8018E
:105A000090818927982789276817790799F4CE010B
:105A1000DF91CF911F910F91FF90EF90DF90CF908A
:105A2000BF90AF909F908F907F900895C330D10525
:105A300008F0C3CFD0E0C0E0EACF0F931F93CF931D
:105A4000DF9300D000D000D0CDB7DEB78C0142E4A8
:105A50004F83DC011396EC91EE83E095F0E0EE0FBE
:105A6000FF1FE451F44E859194918095292F33279F
:105A70008427E82FF0E0EE0FFF1FE451F44E8591EC
:105A800094918227932788879987F8018081918153
:105A9000DC01ED91FC910280F381E02D44E050E0C7
:105AA000BE016A5F7F4F199545E050E0BE016F5F10
:105AB0007F4FC8010E94872C009779F021E005975D
:105AC00061F0822F29960FB6F894DEBF0FBECDBFCE
:105AD000DF91CF911F910F91089520E0F2CF2F9287
