:100000000C9475150C94A6150C94A6150C94A615B5
:100010000C94A6150C94A6150C94A6150C94A61574
:100020000C94A6150C94A6150C94A6150C94A61564
:100030000C9436A80C94A6150C94A6150C94A61531
:100040000C94A6150C94A6150C94A6150C94A61544
:100050000C94A6150C94A6150C94A6150C9431239B
:100060000C94A6150C94CF980C94A5980C94A615F6
:100070000C94A6150C94A6150C94A6150C94A61514
:100080000C94A6150C94A6150C94A6150C94A61504
:100090000C946F980C9445980C94A6150C94239F7F
:1000A0000C94A6150C94A6150C94A6150C94A615E4
:1000B0000C94A6150C94A6150C94A6150C94A615D4
:1000C0000C94A6150C94A6150C94A6150C940F98D8
:1000D0000C94E5970C94A6150C94AF970C94859707
:1000E0000C94A6150C943D6C0C9494170C947318F6
:1000F0000C94386B0C94E3390C9451990C94286B44
:100100000C9453810C948F1F0C946AA00C9460186B
:100110000C9493700C94531D0C946F680C949B106A
:100120000C94857E0C9490890C94F1160C94B71E57
:100130000C9467990C942D650C94AFA00C94DA186C
:100140000C9484190C945EA00C94781C0C94FD7D86
:100150000C9427990C9436A00C94CB150C944481E4
:100160000C94B58E0C9483A30C9470680C94D015E9
:100170000C94BFA00C94F41F0C948D1F0C9479A3C5
:100180000C9439990C94F2A30C94CF2A0C94A915D1
:100190000C94813A0C94E16A0C94EE830C94387DB3
:1001A0000C9470200C94A0A00C944FA00C947E8C06
:1001B0000C944C7E0C94FC6A0C9421A00C94911F1E
:1001C0000C94D01F0C9431200C94B01E0C9433A0CE
:1001D0000C94F5680C94AF1F0C944EA30C94B1A32F
:1001E0000C94AB150C9455990C946FA00C94B954C5
:1001F0000C9433870C9449A00C9475450C94323AB6
:100200000C94D4A30C94D88E0C944CA00C94A01EE7
:100210000C94CD150C9436110C948BA00C94A53A2B
:100220000C940B850C9420690C94AB960C94058768
:100230000C9463990C94D1520C94633A0C94DB1D8A
:100240000C94D43A0C94258F0C9495810C94AB3A71
:100250000C944D990C9407AC0C94E8A30C94D29593
:100260000C94AF150C9443990C941E950C94E56A6C
:100270000C94B2A00C94FCA30C94ED6B0C946296BD
:100280000C94871F0C942C990C9428990C94671843
:100290000C94F56A0C94888D0C945FAB0C947E7D65
:1002A0000C94417D0C94F60E0C94986B0C94A7A3BF
:1002B0000C94DEA30C94A8150C94F6100C94A96B66
:1002C0000C948B1F0C9452A00C9497A30C94BBA37A
:1002D0000C9464890C940CA00C94086B0C9474A37B
:1002E0000C94D16A0C9419690C94F6680C94479993
:1002F0000C946FA30C94186B0C94886B0C9422993B
:100300000C94F0680C9402850C94B1900C94F468F1
:100310000C94C5A30C94BD6B0C942F990C94CF7EB8
:100320000C94533A0C94E52A0C9459840C9458A0DC
:100330000C9494140C94881F0C943D990C946A4C62
:100340000C944A890C9483390C9442170C94753A96
:100350000C94DD6A0C949FA30C94F1100C94848689
:100360000C945F990C945B990C9435990C9418201B
:100370000C9471690C94E6180C9405690C94AA15F8
:100380000C948DA30C948DA00C94BB6A0C94E42562
:100390004E414E494E495459494E46CDCCCC3D0A6A
:1003A000D7233C17B7D13877CC2B329595E6241F4D
:1003B000B14F0A000020410000C84200401C462006
:1003C000BCBE4CCA1B0E5AAEC59D7400407A10F3D9
:1003D0005A00A0724E18090010A5D4E80000E87673
:1003E00048170000E40B54020000CA9A3B000000CA
:1003F000E1F505000080969800000040420F0000E3
:1004000000A08601000000102700000000E80300A3
:100410000000006400000000000A0000000000016D
:1004200000000000002C76D888DC674F0823DFC16D
:10043000DFAE59E1B1B796E5E3E453C63AE6519928
:100440007696E8E6C28426EB898C9B62ED407C6F51
:10045000FCEFBC9C9F40F2BAA56FA5F490055A2A08
:10046000F75C936B6CF9676DC11BFCE0E40D47FE14
:10047000F520E6B500D0ED902E0300943577050009
:1004800080841E080000204E0A000000C80C333390
:1004900033330F986E12831141EF8D2114893BE69F
:1004A0005516CFFEE6DB18D1844B381BF77C1D9028
:1004B0001DA4BBE424203284725E228100C9F12491
:1004C000ECA1E53D2700000000060001000002123B
:1004D0000803EF050006060801F00A000D100D00E4
:1004E000F124000B140D01EF400014111501F06B05
:1004F000000E111001F0890002060501F08B0005C5
:10050000170802EF9A0005170801EFA9000707096D
:1005100001EFB0000A0B0E02F6BE0002060702FF52
:10052000C00006020801F9C20002020602FFC30071
:1005300007120700EFD3000B110D01F0EB000511BE
:100540000D03F0F6000B110D01F00E010B110D0162
:10055000F026010B110D01F03E010B110D01F056BB
:10056000010B110D01F06E010B110D01F086010B55
:10057000110D01F09E010B110D01F0B601020D06E7
:1005800002F4BA0102100602F5BE010C0C0E01F5D0
:10059000D0010C060E01F8D9010C0C0E01F5EB018F
:1005A0000A120D02EF020216151801EF3C0210129A
:1005B0001000EF60020D121002EF7E020F12110107
:1005C000EFA0020E121102EFC0020C120F02EFDBBD
:1005D000020B120E02EFF40210121201EF18030DBB
:1005E000121102EF360302120702EF3B0309120D4C
:1005F00001EF50030E121002EF70030A120E02EF09
:10060000870310121402EFAB030D121202EFC9039D
:1006100011121301EFF0030C121002EF0B0411136F
:100620001301EF34040E121102EF54040E121001E4
:10063000EF74040C120F01EF8F040D121102EFADD5
:10064000040F120F00EFCF0416121600EF01050F72
:10065000121000EF230510121000EF47050D120FC6
:1006600001EF650504170702EF710507120700EF98
:10067000810504170701EF8D0509090B01F09805A5
:100680000F010DFF049A0505040601EF9D050C0DF1
:100690000D01F4B1050C120D01EFCC050A0D0C0192
:1006A000F4DD050B120D01EFF6050B0D0D01F4083D
:1006B0000605120701EF14060B120D01F42D060AB0
:1006C000120D01EF440602120502EF490604170657
:1006D00000EF55060B120C01EF6E0602120501EF3A
:1006E0007306110D1301F48F060A0D0D01F4A00617
:1006F0000B0D0D01F4B2060C110D01F4CC060B111B
:100700000D01F4E406060D0801F4EE060A0D0C01D5
:10071000F4FF0605100701F109070A0D0D01F41A8F
:10072000070C0D0C00F42E07110D1100F44A070BF5
:100730000D0B00F45C070B120B00F475070A0D0C8F
:1007400001F4860705170801EF950702170602EF67
:100750009B0705170802EFAA070A050C01F6FFFF21
:10076000FFF0F0CF3CF38A20063031031818C7FFA2
:10077000BFFC31031818C7FFBFFC31011818C0C6F1
:1007800006300403E1FF726C4788F107207E03F016
:1007900017023C4788F11B267FC3E01002000006C9
:1007A00003C0407E0C0E7080C3180C3100E7300788
:1007B000E6003C40000C7C008FE019C70118303186
:1007C00083021C7040FE0407C00F007E039C0C30A7
:1007D00030C0E701F803803E01CC6E19B07CC0F355
:1007E00003CE1F9FE61E1CFFA0088C663198C63101
:1007F0008C63086308610C208218C318C318C631C3
:100800008C623188C4620010235BE38D91000C037D
:1008100000C030FFFFF0C0300C0300C0F560FFF0F7
:10082000F0020C1020C1020C1020C1020C1020C1DB
:10083000001F07F1C7306E0F80F01E03C0780F0154
:10084000E03C0EC19C71FC1F0008CFFF8C6318C6F2
:10085000318C63181F0FF987607C0600C0180701F0
:10086000C0F0781C0600803007FFFFE03F0FF387E1
:10087000606C0C0180707C0F801801803C0780D870
:1008800073FC1F000180700E03C0D81B06618C2111
:100890008C33067FFFFE0300600C01803FCFF980A0
:1008A000300600DE1FE70E00E00C0180300781F803
:1008B00073FC1F000F07F9C33074018033C7FEF0CB
:1008C000DC1F01E03C06C1DC71FC1F00FFFFFC01E6
:1008D0000060180200C0300601803004018030063C
:1008E000018030001F07F1C730660CC18C61FC3FEE
:1008F0008E3B01E03C0780D831FC1F001F07F1C789
:10090000706C0780F01E0761EFFC798030058198DC
:1009100073FC1E00F00003C0F0000F56000007013A
:10092000E0F83C0F00E007C00F003C00F001FFFFC3
:10093000FF000000FFFFFF000E007801F007C00F6E
:1009400000701E0F03C0F008001F1FEE1B03C0C085
:10095000300C060381C0E0300C030000000C0300E3
:1009600000FE000FFE00F03E07003C380030C1E002
:10097000660FD9D861C3C3070F1C1C3C6060F181AE
:1009800083C6061B1838EE71E718FDF871E7C0E062
:100990000001E00001FFC001FC0003C003C003C070
:1009A00007E0066006600E700C300C301C3818181A
:1009B0001FF83FFC301C300C700E60066006FFC74D
:1009C000FF3019806C03601B00D80CFFC7FF300D8F
:1009D000803C01E00F007806FFF7FE0007E03FF0E3
:1009E000E0738066006C0030006000C0018003008E
:1009F000060006006C00DC031E0E1FF80FC0FF830C
:100A0000FF8C07300EC01B007C00F003C00F003CC1
:100A100000F003C01F006C03B01CFFE3FF00FFFFEA
:100A2000FFC00C00C00C00C00C00FFEFFEC00C00AB
:100A3000C00C00C00C00FFFFFFFFFFFF00600C01B7
:100A400080300600FFDFFB00600C0180300600C034
:100A5000180007F01FFC3C1E70066003E000C00099
:100A6000C000C07FC07FC003C00360036007300FB9
:100A70003C1F1FFB07E1C01E00F007803C01E00F98
:100A8000007803FFFFFFF007803C01E00F007803D0
:100A9000C01E00C0FFFFFFFFF00180C06030180CD7
:100AA00006030180C0603C1E0F07C77F1F00C03BCC
:100AB00001CC0E3070C3831C0CE03380DE03DC0EEF
:100AC000383060C1C3038C06301CC03B0060C030AE
:100AD0000C0300C0300C0300C0300C0300C0300C0D
:100AE0000300FFFFF0E007E007F00FF00FD00FD892
:100AF0001BD81BD81BCC33CC33CC33C663C663C6E0
:100B000063C3C3C3C3C3C3C183E01F00FC07E03D8D
:100B100081EE0F3079C3C61E18F0E7833C1DE06FED
:100B200001F80FC03E01C003E00FFC0F078600C6AE
:100B30000033001B00078003C001E000F0007800D4
:100B40003600330018C018783C1FFC03F800FF8FF4
:100B5000FEC06C03C03C03C03C07FFEFFCC00C00B0
:100B6000C00C00C00C00C00C0003E00FFC0F078697
:100B700000C60033001B00078003C001E000F00046
:100B800078003600330198C0FC783C1FFF03F980E1
:100B90000040FFC3FFCC03B006C01B006C01B00CCB
:100BA000FFE3FFCC03B006C01B006C01B006C01B06
:100BB00000700FE07FC3839C07600D8006001E005D
:100BC0003F803FC00F8007C00F003E00DE0E3FF0A9
:100BD0003F80FFFFFF060060060060060060060021
:100BE00060060060060060060060060060C01E002F
:100BF000F007803C01E00F007803C01E00F0078082
:100C00003C01E00F80EE0E3FE07C006006C01DC09E
:100C100031806301C70306060C1C1C30186031C00C
:100C200073006600DC01F001E003C00700E0301D46
:100C300080E0760781D81E06707C18C1B0E30CC333
:100C40008C330C38C6306718C198670661D81D838D
:100C5000603C0D80F03E03C0700F01C018070070AB
:100C60000E6038E060E1C0C301CC01F801E0038010
:100C700007801F003300E70386060E1C0E700CC0B1
:100C80001C6006700E301C38181C380C300E7006B4
:100C90006003C003C00180018001800180018001E8
:100CA0008001800180FFFFFFC00E00E00E006007A2
:100CB000007007003003803803801801C01C00FF5B
:100CC000FFFFC0FFCCCCCCCCCCCCCCCCCCCFF081FB
:100CD000810206040818102060408181020604FF8A
:100CE0003333333333333333333FF00C0E0586C3A2
:100CF00021198C83C180FFFEE38C303F07F8E1CCE3
:100D00000C00C01C3FCF8CC0CC0CE3C7EF3C70C0C4
:100D10000C00C00C00C00CF8DFCF0EE07C03C03C20
:100D200003C03C03E06F0EDFCCF81F0FE71B83C04E
:100D3000300C0300C038371CFE1F0000600C01801F
:100D400030063CCFFB8FE0F80F01E03C0780F83B1A
:100D50008F3F63CC1F07F1C7703C07FFFFFE00C049
:100D60001C0DC31FE1F03BD8C67FEC6318C6318C65
:100D700063001E67FDC7F07C0780F01E03C07C1D6A
:100D8000C79FB1E600C03E0E7FC7E0C0300C030035
:100D9000C033CDFBC7E0F03C0F03C0F03C0F03C0F5
:100DA000F030F03FFFFFF03300033333333333339E
:100DB000333FE0C0180300600C018330C630CC1B09
:100DC00083F0770C618E30E60CC1D818FFFFFFFF6F
:100DD000F0CF1F6FDFFC78FC183C0C1E060F0307DA
:100DE0008183C0C1E060F03078183C0C18CF37EF39
:100DF0001F83C0F03C0F03C0F03C0F03C0C01F07AF
:100E0000F1C7707C0780F01E03C07C1DC71FC1F0B6
:100E1000CF8DFCF0EE06C03C03C03C03C03E07F0A3
:100E2000EFFCCF8C00C00C00C0001E67FDC7F07C3B
:100E30000780F01E03C07C1DC79FF1E600C01803A9
:100E40000060CF7F38C30C30C30C30C03E1FEE1B98
:100E500000C03C07F03E01F03E1DFE3E006319FF5E
:100E6000B18C6318C631E7C0F03C0F03C0F03C0FF3
:100E700003C0F07E3DFB3CC0E0660660670C30C3FB
:100E80000C3981981981F00F00E00E00C1C1B0E16A
:100E9000D870CC2C6636319B18CD98646C16360F02
:100EA0001A078F038380C1C060EE18C60CC1F01C06
:100EB0000180781B0330C7306606E06C0D83386311
:100EC0000C630E60CC1B03603C0700E0180300E0DD
:100ED000780E00FFFFF0180C070381C06030180E79
:100EE00003FFFFC019CC6318C631998618C6318C30
:100EF000631C60FFFFFFFFFFFCC718C6318C630C4B
:100F000033318C6318C67300703E09E41F03800000
:100F1000000000003E5B4F5B3E3E6B4F6B3E1C3E55
:100F20007C3E1C183C7E3C181C577D571C1C5E7F69
:100F30005E1C00183C1800FFE7C3E7FF00182418E8
:100F400000FFE7DBE7FF30483A060E26297929261D
:100F5000407F050507407F05253F5A3CE73C5A7F07
:100F60003E1C1C08081C1C3E7F14227F22145F5F5D
:100F7000005F5F06097F017F006689956A60606097
:100F8000606094A2FFA29408047E040810207E20D2
:100F90001008082A1C08081C2A08081E1010101027
:100FA0000C1E0C1E0C30383E3830060E3E0E06006D
:100FB0000000000000005F00000007000700147F31
:100FC000147F14242A7F2A12231308646236495698
:100FD00020500008070300001C2241000041221C91
:100FE000002A1C7F1C2A08083E0808008070300078
:100FF0000808080808000060600020100804023E8D
:101000005149453E00427F400072494949462141CD
:10101000494D331814127F1027454545393C4A493C
:10102000493141211109073649494936464949297B
:101030001E0000140000004034000000081422418B
:101040001414141414004122140802015909063E14
:10105000415D594E7C1211127C7F494949363E410F
:101060004141227F4141413E7F494949417F090930
:1010700009013E414151737F0808087F00417F41CB
:10108000002040413F017F081422417F4040404002
:101090007F021C027F7F0408107F3E4141413E7F5A
:1010A000090909063E4151215E7F09192946264951
:1010B00049493203017F01033F4040403F1F204028
:1010C000201F3F4038403F63140814630304780432
:1010D000036159494D43007F4141410204081020FA
:1010E000004141417F040201020440404040400071
:1010F0000307080020545478407F2844443838447B
:10110000444428384444287F385454541800087EF6
:10111000090218A4A49C787F0804047800447D4048
:10112000002040403D007F1028440000417F4000E7
:101130007C047804787C080404783844444438FCFF
:101140001824241818242418FC7C08040408485483
:1011500054542404043F44243C4040207C1C204040
:10116000201C3C4030403C44281028444C90909037
:101170007C4464544C440008364100000077000071
:10118000004136080002010204023C2623263C1ED0
:10119000A1A161123A4040207A3854545559215542
:1011A0005579412254547842215554784020545561
:1011B00079400C1E527212395555555939545454B0
:1011C0005939555454580000457C410002457D4230
:1011D0000001457C407D1211127DF0282528F07C0D
:1011E000545545002054547C547C0A097F493249A7
:1011F0004949323A4444443A324A4848303A4141F3
:10120000217A3A42402078009DA0A07D3D42424292
:101210003D3D4040403D3C24FF2424487E494366F8
:101220002B2FFC2F2BFF0929F620C0887E090320D5
:10123000545479410000447D413048484A32384096
:1012400040227A007A0A0A727D0D19317D262929F9
:101250002F28262929292630484D402038080808FB
:101260000808080808382F10C8ACBA2F102834FA1C
:1012700000007B000008142A142222142A140855A6
:1012800000550055AA55AA55AAFF55FF55FF000065
:1012900000FF00101010FF00141414FF001010FFC6
:1012A00000FF1010F010F0141414FC001414F700D8
:1012B000FF0000FF00FF1414F404FC141417101FA7
:1012C00010101F101F1414141F00101010F0000035
:1012D00000001F101010101F10101010F010000050
:1012E00000FF101010101010101010FF1000000060
:1012F000FF140000FF00FF00001F10170000FC0497
:10130000F414141710171414F404F40000FF00F779
:1013100014141414141414F700F7141414171410DC
:10132000101F101F141414F4141010F010F000000B
:101330001F101F0000001F14000000FC140000F02C
:1013400010F01010FF10FF141414FF141010101FD1
:1013500000000000F010FFFFFFFFFFF0F0F0F0F0E2
:10136000FFFFFF0000000000FFFF0F0F0F0F0F38FF
:1013700044443844FC4A4A4A347E02020606027E4D
:10138000027E0263554941633844443C04407E2058
:101390001E2006027E020299A5E7A5991C2A492A69
:1013A0001C4C7201724C304A4D4D303048784830F8
:1013B000BC625A463D3E494949007E0101017E2AF0
:1013C0002A2A2A2A44445F444440514A4440404423
:1013D0004A51400000FF0103E080FF000008086B55
:1013E0006B083612362436060F090F06000018184F
:1013F0000000001010003040FF0101001F01011E1D
:1014000000191D1712003C3C3C3C0000000000008D
:101410000020002300260029002C002F00320000AD
:1014200001000003010601090153455455500020F5
:101430002D2D00577269746520454550524F4D005F
:10144000526573657474696E6720656E657267793D
:1014500000556E68616E646C6564206E6574776FAC
:10146000726B206576656E7420747970653A200021
:101470004E6F2076616C6964207369676E61747564
:10148000726520666F756E6420696E206565707286
:101490006F6D2E005353443133303620616C6C6FC6
:1014A000636174696F6E206661696C656400DB401E
:1014B000A4A62EAF2000A1C8D300408DAED580A831
:1014C00000006000000000000000000000000000BC
:1014D00000E000000000000000000000000000012B
:1014E000E00000000000000000000000000001F02B
:1014F0000000000000000000000000000003F000F9
:1015000000000000000000000000000007F00000E4
:10151000000000000000000000000007F8000000CC
:10152000000000000000000000000FF800000003B1
:10153000C0007E000001E0007F0FF800000003C043
:1015400000FE000001E000FFEFF800000003C00013
:10155000FE000001E000FFFFF800000003C000F003
:101560000000000F007FFE7FC0000003C000F000FD
:1015700000000F003FFE7FF83FF1FBCFFCFEF3BC05
:101580003DEFE01FFE7FFF7FFBFFDFFEFEFFBC3D68
:10159000EFE01FC6FFFF7FFBFFDFFEFEFFBC3DEF5E
:1015A000E00FE3C7FE787BC3DE1EF0FFBC3DEF001B
:1015B00007FF87FC787BC3DE1EF0F83C3DEF00019F
:1015C000FFFFF0007BC3C01EF0F03C3DEF0001F3D5
:1015D0007FE03FFBC3CFFEF0F03C3DEF0003E33F75
:1015E000807FFBC3DFFEF0F03C3DEF0007E73C00EF
:1015F000787BC3DE1EF0F03C3DEF0007FFBE0078B5
:101600007BC3DE1EF0F03C3DEF0007FFFE00787B61
:10161000C3DE1EF0F03C3DEF000FFFFE007FFBFF3E
:10162000DFFEF0F03FFDEFE00FFFFF007FFBFFDF8D
:10163000FEF0F03FFDEFE00FF9FF003E79F9CF9E9D
:10164000F0F01F3DE7E01FF1FF0000000000000088
:1016500000000000001F80FF007FFFFFFFFFFFFF73
:10166000FFFFFFE01C007F007FFFFFFFFEB46D88DF
:101670008D18E000001F007FFFFFFFFE95AD7DB5D8
:1016800077E000000F007FFFFFFFFEA5AD9D8D19E5
:10169000E0000006007FFFFFFFFEB5ADEDB57EE088
:1016A00000000000000180000000000000000000B9
:1016B000038000000000000000000007C0000000E0
:1016C00000000000000007C0000000000000000053
:1016D000000FC00000000000000000001FE000003C
:1016E000000000000000001FE000000000000000FB
:1016F00000003FE00000000000000000003FF0009C
:1017000000000000000000007FF00000000000006A
:10171000001FF87FF0000000000000003FFE7FF097
:10172000000000000000003FFF7FF000000000000C
:1017300000001FFFFBE0000000000000000FFFF9A9
:10174000FFC00000000000000FFFF9FFF8000000DC
:1017500000000007FFF1FFFF00000000000003FC95
:1017600073FFFF80000000000001FE3FFFFF8000CC
:101770000000000000FF1E0FFF000000000000003E
:101780007FFE1FFC000000000000003FFFFFF8008C
:101790000000000000000FDFFFE00000000000007C
:1017A000001F19FFC0000000000000003F3CFF00C8
:1017B000000000000000007E7CF800000000000037
:1017C00000007FFE7C0000000000000000FFFFFC26
:1017D0000000000000000000FFFFFE00000000000D
:1017E000000000FFFFFE0000000000000001FFEF0E
:1017F000FE0000000000000001FFCFFE000000001E
:1018000000000003FF07FE0000000000000003FCD2
:1018100007FE0000000000000003F003FE000000CF
:1018200000000000018000FE000000000000000039
:1018300000007E000000000000000000003E0000EC
:1018400000000000000000000C0000000000000785
:101850008000FC000003C0000000078001FC0000C5
:1018600003C0000000078001FC000003C00000006E
:10187000078001E00000001E000000078001E0007A
:1018800000001E007FE3F79FF9FDE7787BDFC0FFD4
:10189000F7FFBFFDFDFF787BDFC0FFF7FFBFFDFD5A
:1018A000FF787BDFC0F0F787BC3DE1FF787BDE008F
:1018B000F0F787BC3DE1F0787BDE0000F787803DE4
:1018C000E1E0787BDE007FF7879FFDE1E0787BDE5B
:1018D00000FFF787BFFDE1E0787BDE00F0F787BC13
:1018E0003DE1E0787BDE00F0F787BC3DE1E0787B0E
:1018F000DE00F0F787BC3DE1E0787BDE00FFF7FF1C
:10190000BFFDE1E07FFBDFC0FFF7FFBFFDE1E07F50
:10191000FBDFC07CF3F39F3DE1E03E7BCFC00000E6
:10192000000000000000000000FFFFFFFFFFFFFFBE
:10193000FFFFFFC0FFFFFFFFFD68DB111A31C0FF93
:10194000FFFFFFFD2B5AFB6AEFC0FFFFFFFFFD4BC0
:101950005B3B1A33C0FFFFFFFFFD6B5BDB6AFDC023
:10196000496E697469616C697A696E67005E07C562
:101970000420007E001D496E697469616C697A6992
:101980006E6720446973706C61790053746172747E
:1019900000000103070F1F3F7F0080C0E0F0F8FC4C
:1019A000FE2020444843502061737369676E65646C
:1019B000204950200045746865726E65742063612B
:1019C000626C65206973206E6F7420636F6E6E6544
:1019D000637465642E0045746865726E6574206D6D
:1019E0006F64756C65206E6F7420666F756E640031
:1019F0004661696C656420746F20636F6E66696709
:101A00007572652045746865726E657420757369BA
:101A10006E672044484350004448435020636F6E33
:101A20006E65637420747279202300496E6974694D
:101A3000616C697A652045746865726E657420779B
:101A400069746820444843503A00207472792061D8
:101A50006761696E20696E2035207365636F6E64FF
:101A600073006661696C65642C2072633D00636F6E
:101A70006E6E656374656400417474656D7074693D
:101A80006E67204D51545420636F6E6E65637469A8
:101A90006F6E2E2E2E00436F6E6E656374696E67D7
:101AA00020746F207365727665723A200000000A18
:101AB0000B02090C0D0E08070304010000000000D2
:101AC0000000000000000000000000000000000016
:101AD00000000000000000000012111000000000D3
:101AE00000000000000000000000000000000000F6
:101AF00000000000002100240027002A002D0030F3
:101B000000330001010000040107010A0101021075
:101B10002020080810204010204080020102010807
:101B200004020101020408102040808040201008B7
:101B30000402018004020180402010080402010810
:101B40000402010102040810204080010204081070
:101B500020408000002200250028002B002E0031AC
:101B600000340002010000050108010B0105050514
:101B700005070508080808020202020A0A08080404
:101B80000404040101010101010101030303030332
:101B9000030303040707070C0C0C0C0C0C0C0C02C1
:101BA00002020206060606060606060B0B0B0B0BC8
:101BB0000B0B0B4D515454206E6F7420636F6E6E7F
:101BC00065637465642C2061626F72742070756245
:101BD0006C6973682E0020487A00206B77002057CC
:101BE000002041002056002200FF21000000C1C05B
:101BF00081C1400101C3C003800241C201C6C006C9
:101C0000800741C70005C1C581C4400401CCC00C98
:101C1000800D41CD000FC1CF81CE400E000AC1CA58
:101C200081CB400B01C9C009800841C801D8C01848
:101C3000801941D9001BC1DB81DA401A001EC1DEC8
:101C400081DF401F01DDC01D801C41DC0014C1D4B8
:101C500081D5401501D7C017801641D601D2C012D8
:101C6000801341D30011C1D181D0401001F0C030A8
:101C7000803141F10033C1F381F240320036C1F6C8
:101C800081F7403701F5C035803441F4003CC1FC98
:101C900081FD403D01FFC03F803E41FE01FAC03A58
:101CA000803B41FB0039C1F981F840380028C1E888
:101CB00081E9402901EBC02B802A41EA01EEC02EC8
:101CC000802F41EF002DC1ED81EC402C01E4C024B8
:101CD000802541E50027C1E781E640260022C1E2D8
:101CE00081E3402301E1C021802041E001A0C060E8
:101CF000806141A10063C1A381A240620066C1A6C8
:101D000081A7406701A5C065806441A4006CC1AC97
:101D100081AD406D01AFC06F806E41AE01AAC06A57
:101D2000806B41AB0069C1A981A840680078C1B847
:101D300081B9407901BBC07B807A41BA01BEC07EC7
:101D4000807F41BF007DC1BD81BC407C01B4C074B7
:101D5000807541B50077C1B781B640760072C1B2D7
:101D600081B3407301B1C071807041B00050C19027
:101D7000819140510193C053805241920196C056C7
:101D8000805741970055C19581944054019CC05C97
:101D9000805D419D005FC19F819E405E005AC19A57
:101DA000819B405B0199C059805841980188C04887
:101DB00080494189004BC18B818A404A004EC18EC7
:101DC000818F404F018DC04D804C418C0044C184B7
:101DD000818540450187C047804641860182C042D7
:101DE000804341830041C18181804040CF93DF9394
:101DF00000D000D000D01F92CDB7DEB78FEF682E95
:101E00008AE0782EE091930AF091940A908110E094
:101E100000E0992329F00580F681E02D00811181F1
:101E200080911E0B8F5F80931E0B0FB6F8940F925C
:101E3000C0901F0BD090200B0F900FBE20919E09D9
:101E400030919F09C216D30608F46BC0D0929F0947
:101E5000C0929E0991118EC0E091910AF091920A70
:101E6000808191E081118AC0E091950AF091960AF3
:101E70000FB6F8940F92858D8F3F09F4158E868DDD
:101E80008F3F09F4168E0F900FBE828D882309F4C0
:101E9000CEC2CF010E94E1A70E940FA981115AC0B2
:101EA0000E9439A857C00580F681E02DA080B1803E
:101EB00006811781780122E0E20EF11CD8011A9602
:101EC000ED91FC911B9714962D913C9115971696C8
:101ED0008D919C91D90115969C938E931497D8015E
:101EE00016968D919C91DC0113963C932E9312973C
:101EF00021813281E216F30611F492838183D801A5
:101F00001B961C921E921A9780818150808380813B
:101F10005096ED91FC91C8011995F801828982FDD6
:101F200000C2E091930AF091940A80818111BBCFA5
:101F30008091910A9091920A9093940A8093930AC7
:101F4000F093920AE093910AD0929F09C0929E0961
:101F50000E940FA90091950A1091960A0FB6F89465
:101F60000F92D8015A96FC905A97F11009C00F9021
:101F70000FBE48CFC016D10608F08BC190E074CFD9
:101F80005C964C915C974423E9F050E016966D9175
:101F90007C911797640F751F17967C936E93169715
:101FA00014968D919C9115976817790738F06D916B
:101FB0007C91119717967C936E931697CE01069697
:101FC0000E94E7BCFA94F801F28E8085811157C116
:101FD0000F900FBE8E8187FDBDCFE984FA84D701B3
:101FE0001A96ED91FC911B97309739F114964D910B
:101FF0005C91159716968D919C91DA0115969C939C
:102000008E931497D70116962D913C91D901139672
:102010005C934E93129741815281C70102964817F3
:10202000590711F432832183D7011B961C921E920B
:102030001A9780818150808380810FB6F8940F9227
:10204000A0901F0BB090200B0F900FBE80919E09A7
:1020500090919F09A816B90608F459C0B0929F093B
:10206000A0929E09EE81EA3008F074CF0E2E000C8B
:10207000FF0B8827E15CFF4E8F4F0C94ABBBF61033
:10208000F610F610F1109B103611F610F610F11044
:102090009B100580F681E02D80809180068117815C
:1020A0006801B2E0CB0ED11CD8011A96ED91FC91DB
:1020B0001B9714962D913C91159716968D919C9196
:1020C000D90115969C938E931497D80116968D91ED
:1020D0009C91DC0113963C932E93129721813281BF
:1020E000C216D30611F492838183D8011B961C92E9
:1020F0001E921A9780818150808380815096ED9145
:10210000FC91C8011995F801828982FD4DC1E091C9
:10211000930AF091940A80818111BBCF8091910A3A
:102120009091920A9093940A8093930AF093920A62
:10213000E093910A93CFD70152968C915297816088
:1021400052968C9352972F8138851D963C932E93EF
:102150001C97C9018A0D9B1D13969C938E93129711
:102160001996FC92EE9218970091950A1091960A92
:10217000A816B90608F4A2C2232B09F4EFCE9701E2
:102180002E5F3F4FC090910AD090920AF60133968D
:102190008F3F980711F4BEC3FA0142815381DA01DF
:1021A0006D917C9186179707B8F782819381D7014B
:1021B00015969C938E931497DC0115963C932E9361
:1021C0001497D7011796FC93EE93169733832283C7
:1021D0001B96DC92CE921A97F60180818F5F8083E6
:1021E000BDCEF70182898E7F828BB4CEF7018289C2
:1021F0008160828BCF80D88424853585C601820F8B
:10220000931F93838283F186E086A816B90608F4AB
:102210001BC2AC18BD08A216B30608F421C3D7012F
:102220005096ED91FC91C7011995F70182890091B3
:10223000950A1091960A82FF91CE0115110509F4B5
:102240008DCE848595851982C80ED91EDB82CA82FF
:10225000FD82EC8280911A0BBE016F5F7F4F81116E
:1022600080911E0BC8010E94F0B074CED701529627
:102270008C9181FFD7C28E7FF701828B6BCEC80114
:1022800008960E9412A7882309F4A2CE0E9439A8BA
:102290009FCE0E940FA94091930A5091940ADA01AF
:1022A0001596ED91FC91E680F780B7016E5F7F4F48
:1022B000D7011A96ED91FC911B9714962D913C91A4
:1022C000159716968D919C91D90115969C938E9396
:1022D0001497D70116968D919C91DC0113963C932F
:1022E0002E931297218132816217730711F4928322
:1022F0008183D7011B961C921E921A979081915050
:102300009083808152969C91529792FDC8C29E7F85
:10231000F701928BD7015096ED91FC91C701199569
:1023200019CE848595858A0D9B1DA816B90608F0DF
:1023300074C19383828311870087E091930AF0919F
:10234000940ABF016D5F7F4F8F3F980711F477C2EA
:10235000B901DB0112962D913C91D9014D915C910F
:1023600084179507A8F7DB0112968D919C91D801EF
:1023700015969C938E931497DC011596FC92EE9221
:102380001497D80117967C936E931697DB011396DA
:10239000FC92EE921297D8011B96FC93EE931A973B
:1023A00080818F5F8083C1CD84859585880D991D3F
:1023B0008816990608F01AC19383828311870087D3
:1023C000E091930AF091940ABF016D5F7F4F8F3FB8
:1023D000980711F461C2B901DB0112962D913C916D
:1023E000D9014D915C9184179507A8F7DB011296EE
:1023F0008D919C91D80115969C938E931497DC0136
:102400001596DC92CE921497D80117967C936E9312
:102410001697DB011396DC92CE921297D8011B9689
:10242000FC93EE931A9780818F5F808374CE6289CC
:10243000738920911C0B30911D0BD9011F967C9341
:102440006E931E9720911C0B30911D0BDB0114968F
:102450004D915C91D90151965C934E935097209188
:102460001C0B30911D0BDB0114964D915C91245F88
:102470003F4FDA0113963C932E93129720911C0B39
:1024800030911D0B245F3F4FDB0115963C932E933B
:102490001497A0911C0BB0911D0B9F012F5E3F4F15
:1024A00055963C932E93549781898F5F818B0C199D
:1024B0001D09992311F00FEF1FEF40911F0B509151
:1024C000200BA0901C0BB0901D0BD5011A962D91DE
:1024D0003C911B971496ED90FC90159716966D9174
:1024E0007C91D70115967C936E931497D50116961F
:1024F0006D917C91DB011396FC92EE92129775011F
:10250000B2E0EB0EF11CD9011196CD90DC90129740
:10251000CE14DF0409F481C1D5011B961C921E92D2
:102520001A97D9018C9181508C938C910F3F100791
:1025300009F430C1C801840F951FA0911C0BB09104
:102540001D0B13969C938E9312978417950708F48E
:10255000E0C060911C0B70911D0B6B01B2E0CB0EC3
:10256000D11C4091FD0A5091FE0ADB0112960D919B
:102570001C915A01B3E0AB0EB11C0F3F100711F4D0
:1025800061C15901D50112962D913C91D901ED906F
:10259000FC900E151F05A8F7DB0115963C932E93B2
:1025A0001497D9011596DC92CE921497DB011796F9
:1025B000BC92AE921697D5011396DC92CE921297EA
:1025C000DB011B965C934E931A97DA012C912F5FD7
:1025D0002C932091970A3091980A8217930708F05C
:1025E00058CC9093980A8093970A53CC8091950A7F
:1025F0009091960A009709F48ACD19829B828A826B
:102600001D830C8320911A0BBE016F5F7F4F211138
:1026100020911E0B0E94F0B07ACD8091950A909186
:10262000960A009709F47DCC1982BB82AA821D8389
:102630000C8320911A0BBE016F5F7F4F21112091F7
:102640001E0B0E94F0B06DCCAC14BD0420F48C15B0
:102650009D0508F0E4CD97012E5F3F4F0091930A4E
:102660001091940A8F3F980709F4F5C0F80133964A
:1026700001C0FA0142815381DA016D917C91861784
:102680009707B8F782819381D70115969C938E9313
:102690001497DC0115963C932E931497D701179647
:1026A000FC93EE931697338322831B961C930E9311
:1026B0001A97F80180818F5F80834CCCB7016E5FE1
:1026C0007F4FC090930AD090940A8F3F980709F4E7
:1026D000DEC0F601339601C0F90122813381D901B0
:1026E0004D915C9184179507B8F782819381D7014A
:1026F00015969C938E931497DC0115967C936E939C
:102700001497D7011796FC93EE9316977383628301
:102710005FCD40911C0B50911D0B7A01B2E0EB0E86
:10272000F11C2091FB0A3091FC0ADA0112966D919E
:102730007C916901B3E0CB0ED11C6F3F760711F499
:10274000E0C06C01D60112968D919C91DC010D9137
:102750001C9160177107A8F7DA0115969C938E9368
:102760001497DC011596FC92EE921497DA011796F5
:10277000DC92CE921697D6011396FC92EE921297A7
:10278000DA011B963C932E931A97D9018C918F5F97
:102790008C937FCB992309F4CDCE4091000B5091BF
:1027A000010B80911C0B90911D0BDC0115965C9325
:1027B0004E93149780911C0B90911D0BDA01149687
:1027C0002D913C91DC0117963C932E9316978091A6
:1027D0001C0B90911D0BDA0114962D913C910296E1
:1027E000D90113969C938E93129780911C0B909114
:1027F0001D0B0296DA0115969C938E931497A09167
:102800001C0BB0911D0B1B967C926E921A978091B7
:10281000FF0A8F5F8093FF0A3CCB12967C936E93E6
:1028200011977ACEE114F10409F494CB80911E0B38
:102830008F5F80931E0BC7010E9479B489CB67819B
:10284000708591CDDA011796AD90BC90D5011296A6
:102850002D913C91A1CED8011796ED91FC9112CF0C
:1028600097012E5F3F4F0091910A1091920A8F3F7E
:10287000980789F3F801339601C0FA014281538128
:10288000DA016D917C9186179707B8F7FBCED601D8
:102890001796ED91FC9129CF67817085A7CD1C9685
:1028A0008D919C911D979801280F391F13963C9389
:1028B0002E9312971996FC92EE921897C216D30691
:1028C000E0F0C01AD10AC816D90648F18091950ADD
:1028D0009091960A009709F41DCD19821B830A83F3
:1028E000FD82EC8220911A0BBE016F5F7F4F211198
:1028F00020911E0B0E94F0B00DCDCA010E945BA674
:1029000009CDD9011796CD90DC90D60112968D9104
:102910009C9122CFD6011796ED91FC9146CC8091E7
:10292000910A9091920AEACF88E0A82E8BE6B82E01
:1029300090E0692E90E0792E28E1C22E2BE6D22E6F
:1029400030E0432E30E0532E48E2E42E4BE6F42EE6
:1029500050E0252E50E0352E08E81BE660E0862E7C
:1029600060E0962E80919A09882309F455C00FB62D
:10297000F8940F92E0910D0BF0910E0BC681D78168
:10298000EA85FB852C813D818E819F81D901159639
:102990009C938E9314978E819F81DC0113963C93B8
:1029A0002E9312979E012E5F3F4F41815281421715
:1029B000530711F4928381831B861A86808181508C
:1029C0008083808180911B0B815080931B0B8091B1
:1029D0009A09815080939A090F900FBE8F89988D24
:1029E000009749F020911E0B2F5F20931E0B0E9431
:1029F00079B40E940FA9209709F4B4CF80911E0BDF
:102A00008F5F80931E0BCE010E9479B40E940FA9A4
:102A100080919A098111ABCF8091220B823010F006
:102A20000E9439A888E39BE6892B09F49BCFA11467
:102A3000B10489F06114710471F080913D0D209111
:102A40003E0D90E0805C9F4F821B91098F73992708
:102A5000892B09F042C0C114D10481F04114510402
:102A600069F08091A00C2091A10C90E0805C9F4FB8
:102A7000821B91098F739927892B91F5E114F10439
:102A800081F02114310469F08091030C2091040C31
:102A900090E0805C9F4F821B91098F739927892B4F
:102AA000C9F40115110509F45DCF8114910409F4ED
:102AB00059CF8091660B2091670B90E0805C9F4F0F
:102AC000821B91098F739927892B09F44BCF0E94A0
:102AD000000048CF0E940000E4CF0E940000BBCF5E
:102AE0000E940000CBCF07AC5FAB11241FBECFEF1D
:102AF000D1E2DEBFCDBF00E00CBF19E0A0E0B2E044
:102B0000ECEEFFE701E00BBF02C007900D92A83981
:102B1000B107D9F72FE0A8E9B9E001C01D92A736A7
:102B2000B207E1F715E1C4E7D5E100E006C021975F
:102B30000109802FFE010E94ABBBC337D10780E0A3
:102B40000807A9F70E941DAD0C94E4BF0C94000087
:102B5000089508950895FC01768765870895DC013E
:102B6000ED91FC91068CF78DE02DBAE6E13DFB0777
:102B700071F4FC019485DB011C968C91981711F07F
:102B800081E0089581E09830E0F780E0089519959C
:102B900091E089270895862F089581E0862708957A
:102BA00021E0FC018485883008F020E0822F089520
:102BB0000F931F93CF93DF93EC018C819D81681756
:102BC00079070CF03FC0DA01A20FB31F57FD3FC0D9
:102BD000EE81FF81EA17FB071CF49F01241B350BD4
:102BE000121613067CF5522FE42FE695E695E6952E
:102BF000E89FD001E99FB00D11246A0F7B1FAF8DB4
:102C0000B8A1A60FB71F4770D9F168E0641B462F23
:102C100070E0FB01E756F64EE491261710F5621BB3
:102C200071098FEF90E002C0959587956A95E2F75C
:102C3000E8230130110509F452C0B8F00230110543
:102C400009F44AC0DF91CF911F910F9108959D0122
:102C500050E040E0EE81FF81EA17FB070CF0C0CFA7
:102C6000BCCF01301105D9F1A0F5E0958C91E82396
:102C7000EC93541738F38C819D81A80FB91F541B16
:102C8000583090F00230110569F191E001151105FD
:102C9000F1F09195852F9C932C813D81A20FB31F5C
:102CA00088508830C0F75770552361F2E52FF0E067
:102CB000EF56F64EE4910130110501F118F10230A2
:102CC000110509F0BFCF8C91E827EC93BBCF90E0C2
:102CD000E0CF0230110589F68C91E827C9CF8C919D
:102CE000E82BC6CF952F8C9180958C932C813D81BC
:102CF000A20FB31F98509830B0F7D5CF8C91E82B26
:102D0000EC93A0CFE0958C91E823EC939BCF0F93AD
:102D10001F93CF93DF93FB01E20FF31F77FF03C0F5
:102D20009F0170E060E0EC01AC81BD81AE17BF0790
:102D30001CF49D01261B370B1216130684F5EA01BD
:102D400057FD32C0D595C795D595C795D595C795EB
:102D5000CA9FF001CB9FF00DDA9FF00D11246E0F8A
:102D60007F1FDC015F96ED91FC91E60FF71F477026
:102D7000552781E090E001C0880F4A95EAF7482F77
:102D80000130110509F190F00230110541F42E0FC8
:102D90003F1F808184278193E217F307D1F7DF91EA
:102DA000CF911F910F9108952796CCCF80952E0F2C
:102DB0003F1F9081982391932E173F07D1F7DF9102
:102DC000CF911F910F9108952E0F3F1F8081842B6B
:102DD00081932E173F07D1F7DF91CF911F910F916C
:102DE00008950F931F93FA01A901DC0156963C91B7
:102DF0005697323089F1333029F1313049F077FD7F
:102E000004C09A01AF010E94D8151F910F91089537
:102E100014962D913C91D901AE1BBF0BFD01E41B13
:102E2000F50B77FDF2CFDC0116962D913C916217E0
:102E300073075CF79A01AB01BF010E9487161F91CF
:102E40000F91089516962D913C91D901A61BB70BB1
:102E5000BD0161507109E5CF14962D913C91D901C6
:102E6000A61BB70BBD0161507109DC0116962D91AF
:102E70003C91D901AE1BBF0BFD01E41BF50B77FDA7
:102E8000C4CFBFCF0F931F93FA01A901DC0156965F
:102E90003C915697323061F1333001F1313061F0BD
:102EA000F7FD07C0DC0116962D913C91E217F30760
:102EB000A4F11F910F91089514962D913C91D90181
:102EC000AE1BBF0BFD013197F7FDF3CF9A01AB01AC
:102ED000BF010E94D8151F910F91089516962D914C
:102EE0003C91D901A61BB70BBD01641B750BECCF40
:102EF00014962D913C91D901A61BB70BBD01DC01A5
:102F000016962D913C91D901AE1BBF0BFD01319757
:102F1000641B750BF7FDCDCFC5CF9A01AF010E94A1
:102F200087161F910F91089577FD4DC0DC0118960B
:102F3000ED91FC9119976E177F070CF044C057FD77
:102F400042C01A96ED91FC911B974E175F07DCF576
:102F50005696EC915697E23009F49EC0E33009F49E
:102F600091C0E13091F12130310509F462C0B8F12E
:102F70002230310549F59A0157FF02C0295F3F4FC2
:102F8000359527953595279535952795FC01A4818D
:102F9000B5812A9FF0012B9FF00D3A9FF00D11246F
:102FA0006E0F7F1FDC015F96ED91FC91E60FF71F1E
:102FB0004770552721E030E001C0220F4A95EAF71B
:102FC000808182278083089508951496ED91FC9165
:102FD000E41BF50BAB01BF0161507109C4CF9A012D
:102FE00057FF02C0295F3F4F3595279535952795A7
:102FF00035952795FC01A481B5812A9FF0012B9F6F
:10300000F00D3A9FF00D11246E0F7F1FDC015F96CB
:10301000ED91FC91E60FF71F4770552781E090E096
:1030200001C0880F4A95EAF78095908189238083B3
:10303000CACF9A0157FF02C0295F3F4F35952795A8
:103040003595279535952795FC01A481B5812A9F53
:10305000F0012B9FF00D3A9FF00D11246E0F7F1F92
:10306000DC015F96ED91FC91E60FF71F4770552745
:1030700021E030E001C0220F4A95EAF78081822BDF
:103080008083A1CF1696ED91FC91E61BF70BBA0158
:10309000AF014150510967CF1496ED91FC91DF01CA
:1030A000A61BB70BBD0161507109DC011696ED91AD
:1030B000FC91DF01A41BB50BAD014150510953CF69
:1030C000E091070AF091080A81E083A308950F9325
:1030D0001F93DC01ED91FC91048CF58DE02D199589
:1030E0001F910F9108956F927F928F929F92AF924E
:1030F000BF92CF92DF92EF92FF920F931F93CF93E5
:10310000DF936C01EB015A0139014801FC01A081F8
:10311000B1811A96ED91FC911B9788E6EF36F8077E
:1031200099F56C0E7D1EC615D705C4F45096ED9129
:10313000FC91519788E1E736F80719F45C96ED9118
:10314000FC9187019401A501BE01C6011995219644
:10315000F601A081B181C615D70541F75696ED91CC
:10316000FC9188E6EF36F807A9F4DF91CF911F9123
:103170000F91FF90EF90DF90CF90BF90AF909F9016
:103180008F907F906F900895C6011995F601A081E8
:10319000B181C7CFC601DF91CF911F910F91FF90F1
:1031A000EF90DF90CF90BF90AF909F908F907F90E7
:1031B0006F9019940F931F93DC01ED91FC91068C95
:1031C000F78DE02D19951F910F9108956F927F92C1
:1031D0008F929F92AF92BF92CF92DF92EF92FF9227
:1031E0000F931F93CF93DF93EC016B015A013901C9
:1031F0004801A881B9811A96ED91FC911B9788E648
:10320000EF36F80709F06AC05296ED91FC9153979A
:1032100088E1EA3DF80719F45E96ED91FC9187018B
:103220009301A501B601CE011995A881B9815296E5
:10323000ED91FC915397A501480D591D415051093D
:1032400088E1EA3DF80719F45E96ED91FC9187015B
:103250009301B601CE011995A881B9815096ED91DF
:10326000FC91519788E1E736F80719F45C96ED91E7
:10327000FC9187019401A501B601CE011995A881A1
:10328000B9815096ED91FC915197C60CD71CB601AF
:103290006150710988E1E736F80719F45C96ED9101
:1032A000FC9187019401A501CE011995E881F9816E
:1032B0000688F789E02D88E6EF36F807A1F4DF915C
:1032C000CF911F910F91FF90EF90DF90CF90BF9023
:1032D000AF909F908F907F906F900895CE01199539
:1032E000A881B98191CFCE01DF91CF911F910F912C
:1032F000FF90EF90DF90CF90BF90AF909F908F9016
:103300007F906F9019940895FC016370668B84819F
:10331000958126813781613039F0633029F09187BA
:103320008087338722870895318720879387828714
:1033300008952F923F924F925F926F927F928F9259
:103340009F92AF92BF92CF92DF92EF92FF920F9334
:103350001F93CF93DF93CDB7DEB76C970FB6F8947A
:10336000DEBF0FBECDBF4C012B015A8B498B2F8383
:103370001E830D833701CB86AC86FC01218D328DF7
:103380002115310509F498C1F901349694913297C9
:10339000459154918F81891B97E0899F400D511D64
:1033A0001124F90125903490FA01C590D490FA01C6
:1033B000329624912D87319634913F87329614911D
:1033C000319604914B85423008F438C1812F012E8B
:1033D000000C990B98878F83E02F002E000CFF0BB9
:1033E000FC8BEB8BF401A081B1811A96ED91FC91DD
:1033F0001B9728E6EF36F20709F042C2FF85FF234C
:1034000009F483C0612C712C3C85232F30E03C8370
:103410002B8349895A89400F511D07FD5A95588FB2
:103420004F8BC201810F911D17FD9A959A8F898F3D
:10343000FB85EF2FF0E0FE8BED8B698220E02B8F78
:103440005A864986572C7D84772009F459C0852DEA
:1034500090E02B893C89280F391F4B815C81249F88
:103460005001259FB00C349FB00C1124E989FA89D2
:10347000AE0EBF1EFC85F13009F49DC02B858981FD
:10348000213009F463C01C8E672C7B8C5D86412C37
:1034900055245394580E877039F4C6010196F101F2
:1034A000EC0DFD1D74906C0177FE1FC08F81988517
:1034B000840D911D4D895E89849FB001859F700D9B
:1034C000949F700D112489859A85680F791F1E9627
:1034D000ED91FC91ED80FE800B811C819A01A5018C
:1034E000C4011995F401A081B181770C4394852D15
:1034F000461470F27B8E762C5D843981370D3983CA
:1035000053944F85541608F49FCF5696ED91FC9135
:1035100058E6EF36F50709F099C16C960FB6F894A6
:10352000DEBF0FBECDBFDF91CF911F910F91FF90F6
:10353000EF90DF90CF90BF90AF909F908F907F9053
:103540006F905F904F903F902F9008951D86652C4F
:1035500055245394580E877041F4C6010196F10129
:10356000EC0DFD1D24912B8F6C013B8D37FF18C096
:103570006F8178854D85640F711D89859A85680FE7
:10358000791F1E96ED91FC91ED80FE800B811C81D0
:1035900021E030E0A501C4011995F401A081B181B9
:1035A000FB8DFF0FFB8F2D852F5F2D87852D271519
:1035B00078F2562CA2CF4B85413009F448C089815E
:1035C000612C5D86572C7B8C44244394480E877075
:1035D00039F4C6010196F101EC0DFD1D74906C01EA
:1035E00077FE20C08F819885860D911DED89FE891B
:1035F0008E9FB0018F9F700D9E9F700D11242985A5
:103600003A85620F731F1E96ED91FC91ED80FE804E
:1036100001E010E02D893E89A501C4011995F4014E
:10362000A081B181770C6394842D651468F27B8E40
:10363000752C5D84F981F70DF98362CF5A2D5230D4
:1036400008F0C4CE1C8A1B8A18861F82CBCE10E0DD
:1036500000E0AF88B88CA80EB91EF72CE52C4D8081
:103660005E80698C7A8C8981800F877041F4C601F5
:103670000196F101EC0DFD1D24912B8F6C013B8D0A
:1036800037FF0DC01C96ED91FC919201A501B3018D
:10369000600F711FC4011995F401A081B181FB8DE8
:1036A000FF0FFB8F0F5F1F4F0F15E8F27F2C5E2C73
:1036B00029812F0D298324CF80859185681779076B
:1036C0000CF02BCF82859385481759070CF025CF36
:1036D0002C2D30E03A832983AB0186E0C89E400D53
:1036E000511D1124588B4F87141615060CF015CF59
:1036F0002A2C312CF101EE0FFF1FEE0FFF1FEE0FF2
:10370000FF1FFE87ED87CF0129893A89820F931F1A
:10371000181619060CF001CFF401808D811105C037
:10372000FF81F03B10F0FF5FFF83F401A081B181C6
:103730001A96ED91FC911B9728E6EF36F20709F0F7
:10374000D1C05C824B822F8145E0249F90011124DF
:10375000215F304F38872F83A2014B5F5F4F5A871D
:103760004987EF81F8858491A988BA88D12CC12C2A
:1037700023C03B85313009F489C01E96ED91FC9140
:10378000ED80FE80810129813A81A501B201C40149
:103790001995F401A081B1812B893C893595279534
:1037A0003C8B2B8B8B893FEFC31AD30AA20CB31C23
:1037B00048E0C416D104A1F0282F30E03C8B2B8BBD
:1037C00080FDD7CF2D813E812615370529F33B8516
:1037D000313009F46DC01E96ED91FC917301D2CF8A
:1037E0008F819885019698878F83EB81FC81319634
:1037F000FC83EB8329813A81420E531E49855A8509
:10380000E417F50709F0ADCF8D819E8186159705E8
:10381000A9F09B85913009F454C06F857889621BAB
:10382000730B1E96ED91FC9173010D851E854989E0
:103830005A89C4011995F401A081B1815696ED9180
:10384000FC9128E6EF36F20709F467CEC4016C96C6
:103850000FB6F894DEBF0FBECDBFDF91CF911F91A1
:103860000F91FF90EF90DF90CF90BF90AF909F901F
:103870008F907F906F905F904F903F902F90199412
:10388000C4011995F401A081B181B8CD4C854130B6
:1038900009F073CF1C96ED91FC912D813E814989F1
:1038A0005A894C0D5D1D6B817C81C401199571CFC6
:1038B0004C85413009F08FCF1C96ED91FC9193011E
:1038C000EECFEC85E13009F0A8CF5096ED91FC9158
:1038D000830128E030E049895A896B817C81C401E9
:1038E0001995A9CFC4011995F401A081B18129CFFF
:1038F0008F929F92AF92CF92EF92FF920F931F936E
:10390000CF93DF93EC01898D9A8D009709F480C0E5
:103910006A3009F462C06D3009F46DC0FC01349660
:103920002491621708F467C03296E491E61708F410
:1039300062C0FC01329685909490F62FF21B37E01E
:10394000F39F800C911C1124F4013296249131963E
:10395000E491AC85BD85CC882223A9F1EE2399F1B1
:10396000F4013596E491AD884E855F853F89332318
:10397000F1F00E2E000CFF0BE20FF11DCE9E900118
:10398000CF9E300D11242A0F3B1FE885F985E217E1
:10399000F3076CF41D861C860896FC018491A89E92
:1039A000400D511D11245F874E87B0E0A0E0EA88EA
:1039B000FB8808891989262FBD01CE010E9499191B
:1039C000CC88AC85BD85F4013496E491EC9DA00DC6
:1039D000B11D1124BD87AC870EC01D861C86FC015D
:1039E0003896E4912D898E859F85E29F800D911DEB
:1039F00011249F878E8781E090E0DF91CF911F9106
:103A00000F91FF90EF90CF90AF909F908F9008957F
:103A10006A30D1F16D3079F38C859D85CC88AD8885
:103A20004E855F852F892223D9F0E885F9859C0191
:103A300076E0C79E200D311D1124E217F30784F4B0
:103A40001D861C868A2D90E0880F991F880F991F6C
:103A5000880F991F480F591F5F874E8790E080E0BD
:103A6000EA88FB8808891989262FBC01CE010E94AB
:103A700099192C898C859D85E6E02E9F800D911DDE
:103A800011249D878C87B7CF1D861C868D8990E079
:103A9000880F991F880F991F880F991F2E853F85C2
:103AA000820F931FA6CF6F927F928F929F92AF92B9
:103AB000BF92CF92DF92EF92FF920F931F93CF931B
:103AC000DF934C016B01EA0159013801FC01A0812F
:103AD000B1816217730709F43FC04017510759F1CC
:103AE0001A96ED91FC911B9788E6EF36F80709F0DE
:103AF0005CC05496ED91FC9183019501AE01B60135
:103B0000C4011995D401ED91FC910688F789E02D47
:103B1000B8E6EF36FB07C9F5DF91CF911F910F9102
:103B2000FF90EF90DF90CF90BF90AF909F908F90DD
:103B30007F906F9008952617370714F596012A197C
:103B40003B092F5F3F4F5E96ED91FC918701AE01DF
:103B5000B501C4011995E0CF0417150764F49E015F
:103B6000261937092F5F3F4F5C96ED91FC91870135
:103B7000A301B601EECF872D3A01C02FD82FEFCF8A
:103B80008B2D5B01C22ED82ED9CFC401DF91CF91EE
:103B90001F910F91FF90EF90DF90CF90BF90AF906B
:103BA0009F908F907F906F901994C4011995F401A4
:103BB000A081B1819ECFEF92FF920F931F93DC0102
:103BC0001A960D911C911B9718962D913C9119975F
:103BD000ED91FC9100A0F1A1E02D7B0150E040E0CF
:103BE00070E060E019951F910F91FF90EF9008959C
:103BF0008F929F92AF92BF92CF92DF92EF92FF92FD
:103C00000F931F93CF93DF936C015B014A01E9018E
:103C1000FC01A081B1811A96ED91FC911B9788E679
:103C2000EF36F80729F595012C0F3D1F215031097A
:103C30005496ED91FC9178018401A401B501C6016F
:103C40001995D601ED91FC910688F789E02DB8E62B
:103C5000EF36FB0799F4DF91CF911F910F91FF9001
:103C6000EF90DF90CF90BF90AF909F908F9008958E
:103C7000C6011995F601A081B181D5CFC601DF91AA
:103C8000CF911F910F91FF90EF90DF90CF90BF9059
:103C9000AF909F908F9019948F929F92AF92BF9206
:103CA000CF92DF92EF92FF920F931F93CF93DF9308
:103CB0006C015B014A01E9017801FC01A081B1813D
:103CC0001A96ED91FC911B9788E6EF36F80721F5DF
:103CD000C80DD91D8E01015011095496ED91FC912A
:103CE0009501A401B501C6011995D601ED91FC918C
:103CF0000688F789E02DB8E6EF36FB0799F4DF91E7
:103D0000CF911F910F91FF90EF90DF90CF90BF90D8
:103D1000AF909F908F900895C6011995F601A081EC
:103D2000B181D6CFC601DF91CF911F910F91FF9046
:103D3000EF90DF90CF90BF90AF909F908F901994AD
:103D4000EF92FF920F931F93DC01ED91FC9100A085
:103D5000F1A1E02D19951F910F91FF90EF9008951B
:103D6000DC01ED91FC910084F185E02D19942F92F6
:103D70003F924F925F926F927F928F929F92AF92FB
:103D8000BF92CF92DF92EF92FF920F931F93CF9348
:103D9000DF935C016B01EA0117014801841A950A5F
:103DA000A40197FE04C04427552748195909C901A1
:103DB0008C199D09BC0197FF04C066277727681BF3
:103DC000790B3B016417750764F03A014C01902FA1
:103DD000812F8901292F382F9C2F8D2FE601C92E85
:103DE000D82E0C171D070CF06DC04E01801A910AD9
:103DF0003601621A730A77FC86C07401F594E79461
:103E000044244A94542C2C153D050CF46BC06901D4
:103E10009C2F8D2FE801092F182F6417750794F137
:103E2000F501A081B1811C96ED91FC911D978EE169
:103E3000E03BF80719F41896ED91FC919101A60169
:103E4000BE01C5011995E618F708F7FE04C0C40CB9
:103E5000D51CE80CF91C21960C171D070CF7DF91F7
:103E6000CF911F910F91FF90EF90DF90CF90BF9077
:103E7000AF909F908F907F906F905F904F903F900A
:103E80002F900895F501A081B1811C96ED91FC91D0
:103E90001D978EE1E03BF80719F41896ED91FC911F
:103EA0009101AE01B601C5011995E618F708F7FEB4
:103EB00004C0C40CD51CE80CF91C21960C171D0776
:103EC0000CF7CDCF740197FC11C0F594E79444240E
:103ED0004A94542CC216D3060CF09FCF442443942A
:103EE000512C9BCF44244394512C91CFEFEFEE1AE9
:103EF000FE0AF594E79444244A94542CC216D3063F
:103F00000CF08BCFEBCF71946194710876CF08954C
:103F100090E080E008950C9479B40C9479B40C94FA
:103F200079B40F931F93CF93DF93EC0185E592E073
:103F3000998388830FA918AD0115110541F0F80187
:103F4000868197810E9479B4C8010E9479B48DA9B5
:103F50009EA9DF91CF911F910F910C9479B40F938B
:103F60001F93CF93DF93EC0185E592E099838883DB
:103F70000FA918AD0115110541F0F801868197814F
:103F80000E9479B4C8010E9479B48DA99EA90E94AB
:103F900079B4CE01DF91CF911F910F910C9479B438
:103FA000CF93DF93EC018DE492E099838883FE0147
:103FB000E25BFF4F8281882321F0808191810E9402
:103FC00079B48AA5882321F088A599A50E9479B49F
:103FD0008C81811103C0DF91CF9108958A819B81EB
:103FE000DF91CF910C9479B4CF93DF93EC018DE402
:103FF00092E099838883FE01E25BFF4F82818823F0
:1040000021F0808191810E9479B48AA5882321F0D2
:1040100088A599A50E9479B48C81882321F08A8192
:104020009B810E9479B4CE01DF91CF910C9479B439
:10403000CF93DF93EC0189E093E0998388838DED42
:1040400092E099AB88ABFE01E15BFF4F80819181EB
:10405000009711F00E9479B4CE01DF91CF910C94BA
:1040600079B40F931F93CF93DF93EFB7F894009138
:10407000990A10919A0A20919B0A30919C0AEFBFED
:10408000FC01008B118B228B338BC481D581E8819D
:10409000F9810280F381E02D83E8EE3EF807A1F478
:1040A0008C85883038F080E090E0DF91CF911F91CF
:1040B0000F9108958A010E942C83892B59F481E085
:1040C00090E09B838A83EFCFCE01DF91CF911F9148
:1040D0000F911994C801DF91CF911F910F9108950D
:1040E0000F931F93CF93DF931F92CDB7DEB74FB7D8
:1040F000F8940091990A10919A0A20919B0A3091A4
:104100009C0A4FBFFC01008B118B228B338B0481E7
:104110001581F801A081B181ED91FC91119784E89E
:10412000E935F80719F569831296ED91FC9183E85A
:10413000EE3EF80759F5F8018485883040F090E0AC
:1041400080E00F90DF91CF911F910F91089541E092
:1041500050E0BE016F5F7F4F0E942C83892B71F46A
:1041600081E090E0F80193838283E9CFC80119953B
:104170000F90DF91CF911F910F91089581E090E012
:104180000F90DF91CF911F910F91089541E050E082
:10419000BE016F5F7F4FC80119950F90DF91CF91DE
:1041A0001F910F9108954F925F926F927F92AF92FD
:1041B000BF92CF92DF92EF92FF920F931F93CF9314
:1041C000DF931F92CDB7DEB78C015B018FB7F894F8
:1041D0004090990A50909A0A60909B0A70909C0AAD
:1041E0008FBF1CC08FB7F894C090990AD0909A0ADC
:1041F000E0909B0AF0909C0A8FBFC418D508E6088F
:10420000F708F80124853585A8EEB3E00E949CBB31
:10421000C616D706E806F90608F045C0F801A481DD
:10422000B581ED91FC9111970084F185E02D85E831
:10423000E230F807A9F51C968C91883098F60E9418
:104240009D84892B79F2F801A481B581ED91FC91CF
:1042500011970284F385E02D89E8EA34F80729F5FF
:1042600041E050E0BE016F5F7F4F1C968C910E9431
:104270005C8518161906E4F48981F501808381E0D4
:104280000F90DF91CF911F910F91FF90EF90DF90F2
:10429000CF90BF90AF907F906F905F904F900895B8
:1042A000CD011995CECF80E0EBCFCD011995E5CFAB
:1042B0008FEFE3CF2F923F924F925F926F927F9258
:1042C0008F929F92AF92BF92CF92DF92EF92FF9226
:1042D0000F931F93CF93DF9300D000D000D0CDB7C2
:1042E000DEB75C011B01DC0116966D917C910E948A
:1042F000D320882309F465C0D5011696ED91FC9171
:1043000000810A83198201E010E0412C512C320116
:10431000C12CD12C7601C394BE016F5F7F4FC501C4
:104320000E94D320882309F44CC04801BFEF8B1AA8
:104330009B0A8981D5011696ED91FC91E00FF11F42
:104340008083E981AE2FAF77B0E0A70196010E948C
:1043500067BB460E571E681E791ECC0CDD1CEE1C7A
:10436000FF1CCC0CDD1CEE1CFF1CCC0CDD1CEE1C61
:10437000FF1CCC0CDD1CEE1CFF1CCC0CDD1CEE1C51
:10438000FF1CCC0CDD1CEE1CFF1CCC0CDD1CEE1C41
:10439000FF1CE7FF32C084010530110509F0BCCFD6
:1043A0008FEF9FEFD50198969C938E9397971496D5
:1043B0008D919C91DC01ED91FC910488F589E02DB3
:1043C000199560E070E0CB0129960FB6F894DEBF36
:1043D0000FBECDBFDF91CF911F910F91FF90EF9056
:1043E000DF90CF90BF90AF909F908F907F906F9015
:1043F0005F904F903F902F9008958FEF880DF101BF
:1044000080838A81807F803309F43FC06401F12C6E
:10441000E12C411451046104710461F14C0C5D1CE8
:104420006E1C7F1C1AC0F50180859185881699063F
:1044300050F489810680F781E02DE80DF91D808315
:10444000FFEF8F1A9F0A0FEFC01AD00AE00AF00A96
:104450004C145D046E047F0469F0BE016F5F7F4FF2
:10446000C5010E94D3208111DECFABCFCA80DB8093
:10447000EC80FD80D50195968D919C91892B09F456
:10448000B2C0B40190E080E09FCFD50116966D9147
:104490007C91680D791DC5010E94D320882309F401
:1044A00090CFF50166817781C8010296680F791F68
:1044B000C5010E94D320882309F483CF4801F3E08B
:1044C0008F0E911CD5011696ED91FC91D1018C9126
:1044D000DF01A80FB11D11968C91119790E0982FD4
:1044E000882712962C91820F911D208121FD029622
:1044F000840130E020E00A831B832C833D8313E09A
:10450000411651046104710408F4B0CFCA80DB8005
:10451000EC80FD8012E0C11AD108E108F108C40C5A
:10452000D51CE61CF71C2EEF422E55245A94652C00
:10453000752C9C0150E040E02E833F8348875987CB
:1045400049C0D50195968D919C91009709F1F10193
:104550002081B301A201421B5109610971090A813D
:104560001B812C813D81400F511F621F731F0E81E3
:104570001F8128853985041715072607370740F45A
:10458000DC01ED91FC910190F081E02D698119959C
:10459000F501808591858816990650F489810680F9
:1045A000F781E02DE80DF91D8083FFEF8F1A9F0A38
:1045B0000A811B812C813D810F5F1F4F2F4F3F4F81
:1045C0000A831B832C833D830C151D052E053F0597
:1045D00009F450CFBE016F5F7F4FC5010E94D32009
:1045E0008111AFCFEECEF50180859185B0E0A0E0DE
:1045F0008C159D05AE05BF0508F4E3CE42CF3FB74D
:10460000F8948091F30A9091F40AA091F50AB09180
:10461000F60A26B5A89B05C02F3F19F00196A11DEB
:10462000B11D3FBFBA2FA92F982F8827BC01CD01FC
:10463000620F711D811D911D660F771F881F991FC5
:10464000660F771F881F991F08952FB7F894609100
:10465000990A70919A0A80919B0A90919C0A2FBFA7
:1046600008951F920F920FB60F9211242F933F932C
:104670008F939F93AF93BF938091990A90919A0AD9
:10468000A0919B0AB0919C0A3091900A23E0230FDD
:104690002D3768F126E8230F0296A11DB11D209346
:1046A000900A8093990A90939A0AA0939B0AB093D8
:1046B0009C0A8091F30A9091F40AA091F50AB091B6
:1046C000F60A0196A11DB11D8093F30A9093F40A96
:1046D000A093F50AB093F60ABF91AF919F918F9185
:1046E0003F912F910F900FBE0F901F90189501963C
:1046F000A11DB11DD4CFCF93DF93FC01A481B5815F
:10470000109779F0EC01ED91FC9111970688F789EB
:10471000E02DCD011995811108C08FA198A5892B95
:1047200061F080E0DF91CF91089581E02FA138A55D
:10473000232BB9F7DF91CF9108958DEF9FEF98A7C5
:104740008FA38C819D81DC01ED91FC910680F78126
:10475000E02D19958C819D81DC01ED91FC910488FF
:10476000F589E02D1995DDCF8F929F92AF92BF9280
:10477000CF92DF92EF92FF920F931F93CF93DF932D
:1047800000D01F92CDB7DEB74C01962F7A015901A8
:10479000822F8F77A901440F452F441F550B519548
:1047A0004115510509F467C020E0BE016F5F7F4FDE
:1047B000E1E0E20FDB01A20FB11D80688C93842F32
:1047C0008F77440F452F441F550B519541155105C7
:1047D00011F02E2FEDCFE60FF72FF11D80832E5F06
:1047E00030E0F701E21BF30B948389010F5F1F4F49
:1047F00085E090E06C01C01AD10A821B930B211551
:10480000310551F08E0D9F1DA9011216130614F0EB
:1048100041E050E00E94E7BCD40114968D919C9138
:104820000A0D1B1DB7016C0D7D1DDC01ED91FC9186
:104830000280F381E02DA80119957C010E942523B7
:10484000F401608B718B828B938B81E00E151F05B9
:1048500009F080E00F900F900F900F90DF91CF91B3
:104860001F910F91FF90EF90DF90CF90BF90AF908E
:104870009F908F9008958983D70113969C9383E02E
:10488000C82ED12C02E010E084E090E021E030E07E
:10489000BE016F5F7F4FB6CFEF92FF920F931F93D2
:1048A000CF93DF938C01EB01DC011896ED90FC9027
:1048B000B701CE010E94CCB50996E816F90640F47E
:1048C00080E0DF91CF911F910F91FF90EF900895BD
:1048D000C8010E947B23882399F3F8018685978578
:1048E000019609F445C097878687892FD8011696C7
:1048F000ED91FC91179785831696ED91FC91179792
:104900001E968C911E97868316960D90BC91A02DB5
:104910008881882399F1FD013996219630E020E0C5
:1049200001C09A01B901665F7F4F8193A9014F5F72
:104930005F4F89918111F5CF641B750BFB01329795
:10494000852F615071092B5F3F4FEA0FFB1F80835A
:10495000A60FB71F4C93F8014681578162EAC80140
:10496000DF91CF911F910F91FF90EF900C94B423A2
:1049700081E090E09787868780E0B8CF24E030E040
:1049800040E068E070E080E0E7E0F0E0DECFEF924A
:10499000FF920F931F93CF93DF938C01EB01DC0108
:1049A0001896ED90FC90B701CE010E94CCB5099607
:1049B000E816F90640F480E0DF91CF911F910F9146
:1049C000FF90EF900895C8010E947B23882399F3FC
:1049D000F80186859785019609F44AC097878687EE
:1049E000892FD8011696ED91FC911797858316961D
:1049F000ED91FC9117971E968C911E9786831696C3
:104A00000D90BC91A02D88818823C1F1FD013996BC
:104A1000219630E020E001C09A01B901665F7F4F26
:104A20008193A9014F5F5F4F89918111F5CFCB0130
:104A3000841B950BFC01329701972A5F3F4FEA0FC9
:104A4000FB1F5083A80FB91F4C93F80186819781F3
:104A5000680F791FDB011C924681578162E8C8010B
:104A6000DF91CF911F910F91FF90EF900C94B423A1
:104A700081E090E09787868780E0B3CF25E030E043
:104A800040E088E090E050E0E7E0F0E069E070E0CE
:104A9000D6CF8F929F92AF92BF92CF92DF92EF923A
:104AA000FF920F931F93CF93DF938C016B014A0109
:104AB0004115510509F47CC0DC0118966D917C917B
:104AC000CA010E94CCB57C01C8010E947B238823C7
:104AD00009F460C0E801A884B984B501C6010E9448
:104AE000CCB59701295F3F4F820F931FA816B906D7
:104AF00008F450C06E817F81F6018081882309F41B
:104B00005AC0AB01495F5F4FD601119630E020E0FB
:104B1000F9013896EA018993AE012F5F3F4F8D91DD
:104B20008111F6CFCF01821B930BDC011297019705
:104B3000A60FB71F3C93680F791FDB012C939F01D1
:104B4000E114F10491F0E401EE0EFF1E9F012F5FCE
:104B50003F4F8991D80116966D917C91E60FF71F12
:104B60008083F901E216F30689F725503109E8013F
:104B70004E815F8160E3C801DF91CF911F910F915A
:104B8000FF90EF90DF90CF90BF90AF909F908F906D
:104B90000C94B42380E0DF91CF911F910F91FF908F
:104BA000EF90DF90CF90BF90AF909F908F9008953F
:104BB000F12CE12C89CF20E086E090E030E0A5E008
:104BC000B0E0E7E0F0E0B4CFEF92FF920F931F93D5
:104BD000CF93DF93CDB7DEB72F970FB6F894DEBF34
:104BE0000FBECDBF8C01FB01E0908E0AF0908F0AC2
:104BF000CA014A30510510F089E090E04115510595
:104C000051F1208129834230510528F121812A83E5
:104C10004230510501F122812B8343305105D9F0F7
:104C200023812C8344305105B1F024812D834530FC
:104C3000510589F025812E834630510561F026818A
:104C40002F834730510539F0278128874830510597
:104C500011F02085298721E030E02C0F3D1F820FC5
:104C6000931FDC011C9268E373E0C8010E9409BD38
:104C7000892B09F44EC066E573E0C8010E9409BDA6
:104C8000892B49F164E773E0C8010E9409BD892BB3
:104C900009F06AC08E01055F1F4F85E0F80111928F
:104CA0008A95E9F7CE0101960E94AAB59E878D8765
:104CB000D7019B96ED91FC91C80119952F960FB6DF
:104CC000F894DEBF0FBECDBFDF91CF911F910F9142
:104CD000FF90EF900895CE0101960E94A6B50E9424
:104CE000A2BC072E000C880B990B0E9412BA23E37A
:104CF00033E343E250E40E9471BA0E94A2BC6F3FCA
:104D0000710509F054F577FD2CC085E00E9408A4D8
:104D1000D5CFCE0101960E94A6B50E94A2BC072E57
:104D2000000C880B990B0E9412BA23E333E343E291
:104D300050E40E9471BA0E94A2BC6F3F710509F055
:104D400024F477FD06C086E0E1CF6FEF70E077FFD7
:104D5000FACF70E060E086E0D9CF6FEF70E077FFC8
:104D6000D4CF70E060E0D1CF68E873E0C8010E9462
:104D700009BD892BA1F41D861E861F8681E090E067
:104D80009C878B87CE0101960E94AAB59E878D874E
:104D9000D7019B96ED91FC91CE010B968ECF6DE9DC
:104DA00073E0C8010E9409BD892BA1F41D861E86EF
:104DB0001F8682E090E09C878B87CE0101960E943F
:104DC000AAB521E01816190614F42F87E1CF20E0C8
:104DD0002F87DECF68EB73E0C8010E9409BD892BE5
:104DE00001F563ED73E0CE0101960E9409BD892BA8
:104DF00071F41D861E861F8683E090E09C878B875A
:104E0000D7019B96ED91FC91CE010B96199541E946
:104E100054E068EB73E0F70187A990AD0E94492543
:104E20004DCF6BED73E0C8010E9409BD892B31F4B1
:104E30001D861E861F8684E090E0A2CF67EF73E098
:104E4000C8010E9409BD892B31F41D861E861F866C
:104E500085E090E095CF63E174E0C8010E9409BD50
:104E6000892B09F02BCF1D861E861F8686E090E0D9
:104E700087CF1F93CF93DF93EC018D8D9E8D00978D
:104E8000A9F4ADA5BEA59C918BA9809589238C938F
:104E90008B8D9C8D892B71F16EBD00000DB407FECA
:104EA000FDCF8EB5DF91CF911F910895162F29A1C7
:104EB00031E03093FA0A2093F90A1092F80A10921E
:104EC000F70ADC01ED91FC910190F081E02D60E0AA
:104ED00019958D8D9E8DDC01ED91FC910190F081F5
:104EE000E02D612F19958D8D9E8DDF91CF911F91B2
:104EF0000C94E399A9A5BAA589A99C9167FDADC0B9
:104F0000809589238C93ABA5BCA58C919AA9892BFC
:104F10008C93ABA5BCA59C918AA9809589238C9381
:104F2000A9A5BAA589A99C9166FDA6C080958923EB
:104F30008C93ABA5BCA58C919AA9892B8C93ABA51E
:104F4000BCA59C918AA9809589238C93A9A5BAA513
:104F500089A99C9165FD8EC0809589238C93ABA512
:104F6000BCA58C919AA9892B8C93ABA5BCA59C91CF
:104F70008AA9809589238C93A9A5BAA589A99C9112
:104F800064FD76C0809589238C93ABA5BCA58C91DC
:104F90009AA9892B8C93ABA5BCA59C918AA98095D5
:104FA00089238C93A9A5BAA589A99C9163FD5EC0AC
:104FB000809589238C93ABA5BCA58C919AA9892B4C
:104FC0008C93ABA5BCA59C918AA9809589238C93D1
:104FD000A9A5BAA589A99C9162FD46C0809589239F
:104FE0008C93ABA5BCA58C919AA9892B8C93ABA56E
:104FF000BCA59C918AA9809589238C93A9A5BAA563
:1050000089A99C9161FD2EC0809589238C93ABA5C5
:10501000BCA58C919AA9892B8C93ABA5BCA59C911E
:105020008AA9809589238C93A9A5BAA589A99C9161
:1050300060FF15C0892B8C93ABA5BCA58C919AA958
:10504000892B8C93ABA5BCA59C918AA980958923BB
:105050008C93DF91CF911F910895892B53CF809529
:105060008923E9CF892BD2CF892BBACF892BA2CF25
:10507000892B8ACF892B72CF892B5ACF7F928F921F
:105080009F92AF92BF92CF92DF92EF92FF920F93D7
:105090001F93CF93DF937C018B016A010E9425232C
:1050A0004B015C01712CC72DD0E0CC15DD05A8F5B6
:1050B0002FB7F8948091990A90919A0AA0919B0A2F
:1050C000B0919C0A2FBF88199909AA09BB09843697
:1050D0009105A105B10508F059C0D7018D919C91AA
:1050E000DC01ED91FC910084F185E02D19951816F5
:1050F0001906F4F6F70180819181DC01ED91FC91B4
:105100000284F385E02D19957394C00FD11F888315
:10511000C72DD0E0CC15DD0558F2AE014250510943
:10512000D8019801225031092C0F3D1F6FEF7FEFFE
:10513000ED91872F9927E627F0E0EE0FFF1FE4514E
:10514000F44E6591749168277927A217B30781F708
:10515000F801EC0FFD1F31978081040F151FF80136
:1051600090818927982789276817790799F4CE01B4
:10517000DF91CF911F910F91FF90EF90DF90CF9033
:10518000BF90AF909F908F907F900895C330D105CE
:1051900008F0C3CFD0E0C0E0EACF0F931F93CF93C6
:1051A000DF9300D000D000D0CDB7DEB78C0142E451
:1051B0004F83DC011396EC91EE83E095F0E0EE0F67
:1051C000FF1FE451F44E859194918095292F332748
:1051D0008427E82FF0E0EE0FFF1FE451F44E859195
:1051E00094918227932788879987F80180819181FC
:1051F000DC01ED91FC910280F381E02D44E050E070
:10520000BE016A5F7F4F199545E050E0BE016F5FB8
:105210007F4FC8010E943E28009779F021E0059752
:1052200061F0822F29960FB6F894DEBF0FBECDBF76
:10523000DF91CF911F910F91089520E0F2CF2F922F
:105240003F924F925F926F927F928F929F92AF9216
:10525000BF92CF92DF92EF92FF920F931F93CF9363
:10526000DF93CDB7DEB762970FB6F894DEBF0FBEFF
:10527000CDBF9A8B898BDC015E962C915E975F96F1
:105280003C915F9790964C91909791965C919197F5
:1052900092966C91929793967C91939794968C9119
:1052A000949795969C9128533F4F4F4F5F4F6F4F68
:1052B0007F4F8F4F9F4FB22EC32ED42EA52E7B0132
:1052C0008C010E9425231B012C01612C712C4301B0
:1052D00069873A868B875C866D867E868F86988AFC
:1052E0002B2D3C2D4D2D5A2DB701C80151016201C6
:1052F000E12CF12C00E010E00E94BABBD9F0D0F014
:1053000081E062960FB6F894DEBF0FBECDBFDF918D
:10531000CF911F910F91FF90EF90DF90CF90BF90B2
:10532000AF909F908F907F906F905F904F903F9045
:105330002F900895A989BA891396EC911397E98360
:1053400084E08A831B821C821D824AE04E83E095A2
:10535000F0E0EE0FFF1FE451F44E259134912095BB
:10536000632F77272827E22FF0E0EE0FFF1FE4518D
:10537000F44E85919491FC01E627F7278F2F99270A
:10538000FF27EE0FFF1FE451F44E25913491FC01ED
:10539000E227F3272F2F3327FF27EE0FFF1FE451BC
:1053A000F44E85919491F901E827F9278F2F9927D9
:1053B000FF27EE0FFF1FE451F44E25913491822711
:1053C0009327292F33278427E82FF0E0EE0FFF1FC4
:1053D000E451F44E85919491822793278F83988787
:1053E0008D919C91DC01ED91FC910280F381E02D87
:1053F00048E050E0BE016F5F7F4F199549E150E0F2
:105400006DE07AE089899A890E943E28499711F0D7
:1054100080E077CF6091100A7091110A7627672794
:10542000762790E080E00E9410BA20E030E040E271
:1054300051E40E9430BCE989FA89648375838683CC
:1054400097832091120A6091140A70E090E080E046
:10545000962F882777276627722B2091130A622BB5
:105460002091150A822B0E9410BA20E030E04AE712
:1054700054E40E9430BCA989BA8918966D937D9333
:105480008D939C931B972091160A6091180A70E0E7
:1054900090E080E0962F882777276627722B20914F
:1054A000170A622B2091190A822B0E9410BA20E061
:1054B00030E040E251E40E9430BCE989FA89648717
:1054C00075878687978720911A0A60911C0A70E079
:1054D00090E080E0962F882777276627722B20910F
:1054E0001B0A622B20911D0A822B0E9410BA20E019
:1054F00030E04AE754E40E9430BCA989BA8950964A
:105500006D937D938D939C93539760911E0A709138
:105510001F0A76276727762790E080E00E9410BA5E
:1055200020E030E040E251E40E9430BCE989FA8991
:10553000648B758B868B978B6091200A7091210A02
:1055400076276727762790E080E00E9410BA20E057
:1055500030E048EC52E40E9430BCA989BA895896E0
:105560006D937D938D939C935B978091220A90918C
:10557000230A9827892798275D969C938E935C979A
:105580000E9425238B019C01E989FA89668F178F78
:1055900080A331A312A213A214A215A2B1CE29E0B6
:1055A00033E0FC01318320832DED32E031AB20ABC1
:1055B000815B9F4FFC0180819181009711F00C94D9
:1055C00079B408958CBD9DBD08951F93CF93DF934B
:1055D000EC01162F8D8D9E8D892B09F440C02DA9CD
:1055E0003EA94FA958AD60E074E284EF90E00E94BC
:1055F0007ABB205131094109510956954795379594
:1056000027952093B80066EA111167EACE010E943F
:1056100039278D8D9E8D892B51F4EFA5F8A98081B6
:105620009CA9892B8083DF91CF911F91089529AD8B
:105630003AAD4BAD5CAD60E074E284EF90E00E9467
:105640007ABB205131094109510956954795379543
:1056500027952093B800DF91CF911F9108958B8DEE
:105660009C8D892B21F08EAD9FAD0E94E22AEFA583
:10567000F8A990818CA9809589238083C4CF2F922B
:105680003F924F925F926F927F928F929F92AF92D2
:10569000BF92CF92DF92EF92FF920F931F93CF931F
:1056A000DF93CDB7DEB7A4970FB6F894DEBF0FBE79
:1056B000CDBF7C018BE29AE10E94447470E060E00F
:1056C00087E00E9408A4812C912C540128E2222E0C
:1056D0002AE0322E38EE432E33E0532E612C712C0B
:1056E00006E313E088E19AE10E94F4732AE0B50131
:1056F000A40184E29DE00E94CE756DE084E29DE00D
:105700000E94ED6B892B29F06AE084E29DE00E9403
:10571000ED6BF701C1ACD2AC8091860A882309F405
:105720005CC13092270A2092260A80919E0A882323
:1057300009F44DC1FFE6CF0ED11C80E591E00E9437
:10574000E22AB60189E090E00E94EF761A8309838D
:105750001B821C821D821E82BE016D5F7F4F8FE007
:1057600090E00E94AC778091260A9091270AFC0174
:1057700012A213A214A215A216A217A210A611A675
:1057800012A613A614A615A646AA57AA60AE71AE15
:1057900042AE53AE64AE75AEDC011896FD0126E054
:1057A00011922A95E9F7AC01425F5F4F24E1FA01BB
:1057B00011922A95E9F7F60126E001900D922A95BB
:1057C000E1F7FC01EE5BFF4F10820E94D490813024
:1057D000910509F42FC1892B09F094C180EF99E15B
:1057E0000E9444748091F20AEDECE80FE53008F075
:1057F000A8C1F0E0EE0FFF1FE75AFD4F2081318175
:10580000232B09F49EC190919E0A992309F40AC1A1
:10581000843309F4B6C0873371F480E591E00E94C7
:10582000E22ABE016F5F7F4F8EE290E00E947678A1
:10583000898180FFB4C01C8B0B8B1D8A1E8A1F8A36
:10584000188EF70161AD72AD635B7F4FCE01439659
:105850000E944D971E870D871F86188A198A1A8AFB
:10586000F70161AD72AD625A7F4FCE010D960E9475
:105870004D9718870F8319861A861B861C86F70199
:1058800061AD72AD655D7F4FCE0107960E944D9769
:105890001A8309831B821C821D821E82F70161AD5F
:1058A00072AD645C7F4FCE0101960E944D9718A3A4
:1058B0000F8F89859A85AB85BC8589A39AA3ABA3F5
:1058C000BCA31A8F098F8D899E89AF89B88D8B8F64
:1058D0009C8FAD8FBE8FF70181AD92ADAE01415E61
:1058E0005F4FBE01675E7F4F81599F4F0E94B4A2F8
:1058F0001A8F098F8F859889A989BA898B8F9C8F78
:10590000AD8FBE8FCE0149960E94347F1A8F098FCA
:105910008B819C81AD81BE818B8F9C8FAD8FBE8F23
:10592000CE0149960E94087FF70182A18823E1F108
:105930008DE790E00E944DABFFEF8F1A9F0AAF0AF0
:10594000BF0A23E082169104A104B10409F0CACE73
:10595000A4960FB6F894DEBF0FBECDBFDF91CF91F6
:105960001F910F91FF90EF90DF90CF90BF90AF907D
:105970009F908F907F906F905F904F903F902F906F
:10598000089580E591E00E94E22ABE016F5F7F4F9B
:1059900085E390E00E947678898185FD4CCF85EB88
:1059A00099E10E94447447CF60ED77E080E090E099
:1059B0000E9472748FEF881A980AA80AB80A93E0B6
:1059C00089169104A104B10409F08CCEC1CF0E94C4
:1059D00039A1882309F402CFADCE10926E0A10923D
:1059E0006D0A40926F0A5092700A6092710A70922A
:1059F000720A83EB92E090936C0A80936B0A109387
:105A00007A0A0093790A10927B0A10927C0A10920B
:105A10007D0A10927E0A98E09093830AE1E0E09379
:105A2000860A7FCE0E9439A1882309F404CF809191
:105A3000F20AEECE80E591E00E94E22AE091260A89
:105A4000F091270A1A830983868597859C838B8327
:105A5000808991899E838D83BE016D5F7F4F8FE02A
:105A600090E00E94AC77E091260AF091270A1A8311
:105A70000983868997899C838B83808D918D9E83F2
:105A80008D83BE016D5F7F4F81E090E00E94AC7717
:105A9000E091260AF091270A1A8309838289938963
:105AA0009C838B83848995899E838D83BE016D5FE2
:105AB0007F4F85E090E00E94AC77E091260AF0915C
:105AC000270A868D978D9C838B8380A191A19E83CD
:105AD0008D838B819C81AD81BE818093490B909396
